03:53:37.874623 IP 192.168.0.1.domain > 192.168.0.101.55646: 17294 2/0/0 A 167.89.115.18, A 167.89.123.53 (67)
	0x0000:  9c5a 4472 ec13 0840 f3b2 16f8 0800 4500
	0x0010:  005f 281e 0000 4011 d0b9 c0a8 0001 c0a8
	0x0020:  0065 0035 d95e 004b 0acb 438e 8180 0001
	0x0030:  0002 0000 0000 0473 6d74 7008 7365 6e64
	0x0040:  6772 6964 036e 6574 0000 0100 01c0 0c00
	0x0050:  0100 0100 0000 5a00 04a7 5973 12c0 0c00
	0x0060:  0100 0100 0000 5a00 04a7 597b 35
03:53:37.875063 IP 192.168.0.101.33268 > 18.115.89.167.in-addr.arpa.submission: Flags [S], seq 1480295052, win 64240, options [mss 1460,sackOK,TS val 1657379305 ecr 0,nop,wscale 7], length 0
	0x0000:  0840 f3b2 16f8 9c5a 4472 ec13 0800 4510
	0x0010:  003c 9dea 4000 4006 c148 c0a8 0065 a759
	0x0020:  7312 81f4 024b 583b 828c 0000 0000 a002
	0x0030:  faf0 dba7 0000 0204 05b4 0402 080a 62c9
	0x0040:  99e9 0000 0000 0103 0307
03:53:38.022647 IP 18.115.89.167.in-addr.arpa.submission > 192.168.0.101.33268: Flags [S.], seq 899341107, ack 1480295053, win 28960, options [mss 1452,sackOK,TS val 2613950456 ecr 1657379305,nop,wscale 9], length 0
	0x0000:  9c5a 4472 ec13 0840 f3b2 16f8 0800 4500
	0x0010:  003c 0000 4000 3606 6943 a759 7312 c0a8
	0x0020:  0065 024b 81f4 359a db33 583b 828d a012
	0x0030:  7120 3b0d 0000 0204 05ac 0402 080a 9bcd
	0x0040:  b7f8 62c9 99e9 0103 0309
03:53:38.022718 IP 192.168.0.101.33268 > 18.115.89.167.in-addr.arpa.submission: Flags [.], ack 1, win 502, options [nop,nop,TS val 1657379453 ecr 2613950456], length 0
	0x0000:  0840 f3b2 16f8 9c5a 4472 ec13 0800 4510
	0x0010:  0034 9deb 4000 4006 c14f c0a8 0065 a759
	0x0020:  7312 81f4 024b 583b 828d 359a db34 8010
	0x0030:  01f6 db9f 0000 0101 080a 62c9 9a7d 9bcd
	0x0040:  b7f8
03:53:38.023051 IP 192.168.0.101.33268 > 18.115.89.167.in-addr.arpa.submission: Flags [P.], seq 1:37, ack 1, win 502, options [nop,nop,TS val 1657379453 ecr 2613950456], length 36
	0x0000:  0840 f3b2 16f8 9c5a 4472 ec13 0800 4510
	0x0010:  0058 9dec 4000 4006 c12a c0a8 0065 a759
	0x0020:  7312 81f4 024b 583b 828d 359a db34 8018
	0x0030:  01f6 dbc3 0000 0101 080a 62c9 9a7d 9bcd
	0x0040:  b7f8 4548 4c4f 2069 736d 7470 6430 3030
	0x0050:  3170 316c 6173 312e 7365 6e64 6772 6964
	0x0060:  2e6e 6574 0d0a
03:53:38.169663 IP 18.115.89.167.in-addr.arpa.submission > 192.168.0.101.33268: Flags [P.], seq 1:62, ack 1, win 57, options [nop,nop,TS val 2613950603 ecr 1657379453], length 61
	0x0000:  9c5a 4472 ec13 0840 f3b2 16f8 0800 4500
	0x0010:  0071 63be 4000 3606 0550 a759 7312 c0a8
	0x0020:  0065 024b 81f4 359a db34 583b 828d 8018
	0x0030:  0039 dc81 0000 0101 080a 9bcd b88b 62c9
	0x0040:  9a7d 3232 3020 5347 2045 534d 5450 2073
	0x0050:  6572 7669 6365 2072 6561 6479 2061 7420
	0x0060:  6973 6d74 7064 3031 3037 7031 6961 6432
	0x0070:  2e73 656e 6467 7269 642e 6e65 740d 0a
03:53:38.169771 IP 192.168.0.101.33268 > 18.115.89.167.in-addr.arpa.submission: Flags [.], ack 62, win 502, options [nop,nop,TS val 1657379600 ecr 2613950603], length 0
	0x0000:  0840 f3b2 16f8 9c5a 4472 ec13 0800 4510
	0x0010:  0034 9ded 4000 4006 c14d c0a8 0065 a759
	0x0020:  7312 81f4 024b 583b 82b1 359a db71 8010
	0x0030:  01f6 db9f 0000 0101 080a 62c9 9b10 9bcd
	0x0040:  b88b
03:53:38.169792 IP 18.115.89.167.in-addr.arpa.submission > 192.168.0.101.33268: Flags [.], ack 37, win 57, options [nop,nop,TS val 2613950603 ecr 1657379453], length 0
	0x0000:  9c5a 4472 ec13 0840 f3b2 16f8 0800 4500
	0x0010:  0034 63bf 4000 3606 058c a759 7312 c0a8
	0x0020:  0065 024b 81f4 359a db71 583b 82b1 8010
	0x0030:  0039 d932 0000 0101 080a 9bcd b88b 62c9
	0x0040:  9a7d
03:53:38.169904 IP 18.115.89.167.in-addr.arpa.submission > 192.168.0.101.33268: Flags [P.], seq 62:192, ack 37, win 57, options [nop,nop,TS val 2613950604 ecr 1657379453], length 130
	0x0000:  9c5a 4472 ec13 0840 f3b2 16f8 0800 4500
	0x0010:  00b6 63c0 4000 3606 0509 a759 7312 c0a8
	0x0020:  0065 024b 81f4 359a db71 583b 82b1 8018
	0x0030:  0039 ee47 0000 0101 080a 9bcd b88c 62c9
	0x0040:  9a7d 3235 302d 736d 7470 2e73 656e 6467
	0x0050:  7269 642e 6e65 740d 0a32 3530 2d38 4249
	0x0060:  544d 494d 450d 0a32 3530 2d50 4950 454c
	0x0070:  494e 494e 470d 0a32 3530 2d53 495a 4520
	0x0080:  3331 3435 3732 3830 0d0a 3235 302d 5354
	0x0090:  4152 5454 4c53 0d0a 3235 302d 4155 5448
	0x00a0:  2050 4c41 494e 204c 4f47 494e 0d0a 3235
	0x00b0:  3020 4155 5448 3d50 4c41 494e 204c 4f47
	0x00c0:  494e 0d0a
03:53:38.169916 IP 192.168.0.101.33268 > 18.115.89.167.in-addr.arpa.submission: Flags [.], ack 192, win 501, options [nop,nop,TS val 1657379600 ecr 2613950604], length 0
	0x0000:  0840 f3b2 16f8 9c5a 4472 ec13 0800 4510
	0x0010:  0034 9dee 4000 4006 c14c c0a8 0065 a759
	0x0020:  7312 81f4 024b 583b 82b1 359a dbf3 8010
	0x0030:  01f5 db9f 0000 0101 080a 62c9 9b10 9bcd
	0x0040:  b88c
03:53:38.858403 IP 192.168.0.101.34394 > 192.168.0.1.domain: 58243+ PTR? 101.0.168.192.in-addr.arpa. (44)
	0x0000:  0840 f3b2 16f8 9c5a 4472 ec13 0800 4500
	0x0010:  0048 56a6 4000 4011 6248 c0a8 0065 c0a8
	0x0020:  0001 865a 0035 0034 81fc e383 0100 0001
	0x0030:  0000 0000 0000 0331 3031 0130 0331 3638
	0x0040:  0331 3932 0769 6e2d 6164 6472 0461 7270
	0x0050:  6100 000c 0001
03:53:38.860647 IP 192.168.0.1.domain > 192.168.0.101.34394: 58243* 1/0/0 PTR 192.168.0.101. (71)
	0x0000:  9c5a 4472 ec13 0840 f3b2 16f8 0800 4500
	0x0010:  0063 2820 0000 4011 d0b3 c0a8 0001 c0a8
	0x0020:  0065 0035 865a 004f 65d1 e383 8580 0001
	0x0030:  0001 0000 0000 0331 3031 0130 0331 3638
	0x0040:  0331 3932 0769 6e2d 6164 6472 0461 7270
	0x0050:  6100 000c 0001 c00c 000c 0001 0000 0000
	0x0060:  000f 0331 3932 0331 3638 0130 0331 3031
	0x0070:  00
03:53:38.861020 IP 192.168.0.101.60661 > 192.168.0.1.domain: 53971+ PTR? 1.0.168.192.in-addr.arpa. (42)
	0x0000:  0840 f3b2 16f8 9c5a 4472 ec13 0800 4500
	0x0010:  0046 56a7 4000 4011 6249 c0a8 0065 c0a8
	0x0020:  0001 ecf5 0035 0032 81fa d2d3 0100 0001
	0x0030:  0000 0000 0000 0131 0130 0331 3638 0331
	0x0040:  3932 0769 6e2d 6164 6472 0461 7270 6100
	0x0050:  000c 0001
03:53:38.863092 IP 192.168.0.1.domain > 192.168.0.101.60661: 53971* 1/0/0 PTR 192.168.0.1. (67)
	0x0000:  9c5a 4472 ec13 0840 f3b2 16f8 0800 4500
	0x0010:  005f 2822 0000 4011 d0b5 c0a8 0001 c0a8
	0x0020:  0065 0035 ecf5 004b 7452 d2d3 8580 0001
	0x0030:  0001 0000 0000 0131 0130 0331 3638 0331
	0x0040:  3932 0769 6e2d 6164 6472 0461 7270 6100
	0x0050:  000c 0001 c00c 000c 0001 0000 0000 000d
	0x0060:  0331 3932 0331 3638 0130 0131 00
03:53:38.863505 IP 192.168.0.101.38821 > 192.168.0.1.domain: 12793+ PTR? 18.115.89.167.in-addr.arpa. (44)
	0x0000:  0840 f3b2 16f8 9c5a 4472 ec13 0800 4500
	0x0010:  0048 56a8 4000 4011 6246 c0a8 0065 c0a8
	0x0020:  0001 97a5 0035 0034 81fc 31f9 0100 0001
	0x0030:  0000 0000 0000 0231 3803 3131 3502 3839
	0x0040:  0331 3637 0769 6e2d 6164 6472 0461 7270
	0x0050:  6100 000c 0001
03:53:38.865397 IP 192.168.0.1.domain > 192.168.0.101.38821: 12793 1/0/0 PTR 18.115.89.167.in-addr.arpa. (84)
	0x0000:  9c5a 4472 ec13 0840 f3b2 16f8 0800 4500
	0x0010:  0070 2824 0000 4011 d0a2 c0a8 0001 c0a8
	0x0020:  0065 0035 97a5 005c 2483 31f9 8180 0001
	0x0030:  0001 0000 0000 0231 3803 3131 3502 3839
	0x0040:  0331 3637 0769 6e2d 6164 6472 0461 7270
	0x0050:  6100 000c 0001 c00c 000c 0001 0000 02d3
	0x0060:  001c 0231 3803 3131 3502 3839 0331 3637
	0x0070:  0769 6e2d 6164 6472 0461 7270 6100
03:53:39.605694 IP 192.168.0.101.55186 > 40.71.11.167.https: Flags [.], ack 1344873311, win 501, options [nop,nop,TS val 3686756819 ecr 3527004562], length 0
	0x0000:  0840 f3b2 16f8 9c5a 4472 ec13 0800 4500
	0x0010:  0034 bf71 4000 4006 8657 c0a8 0065 2847
	0x0020:  0ba7 d792 01bb 7092 0b02 5029 235f 8010
	0x0030:  01f5 f521 0000 0101 080a dbbf 71d3 d239
	0x0040:  d192
03:53:39.605721 IP 192.168.0.101.55184 > 40.71.11.167.https: Flags [.], ack 2632490051, win 501, options [nop,nop,TS val 3686756819 ecr 3547598242], length 0
	0x0000:  0840 f3b2 16f8 9c5a 4472 ec13 0800 4500
	0x0010:  0034 a576 4000 4006 a052 c0a8 0065 2847
	0x0020:  0ba7 d790 01bb fbbf 9604 9ce8 9c43 8010
	0x0030:  01f5 f521 0000 0101 080a dbbf 71d3 d374
	0x0040:  0da2
03:53:39.768067 IP 40.71.11.167.https > 192.168.0.101.55184: Flags [.], ack 1, win 1029, options [nop,nop,TS val 3547643408 ecr 3686666603], length 0
	0x0000:  9c5a 4472 ec13 0840 f3b2 16f8 0800 4500
	0x0010:  0034 62d7 4000 6a06 b8f1 2847 0ba7 c0a8
	0x0020:  0065 01bb d790 9ce8 9c43 fbbf 9605 8010
	0x0030:  0405 5ad0 0000 0101 080a d374 be10 dbbe
	0x0040:  116b
03:53:39.768108 IP 40.71.11.167.https > 192.168.0.101.55186: Flags [.], ack 1, win 1028, options [nop,nop,TS val 3527049727 ecr 3686666342], length 0
	0x0000:  9c5a 4472 ec13 0840 f3b2 16f8 0800 4500
	0x0010:  0034 2f12 4000 6906 edb6 2847 0ba7 c0a8
	0x0020:  0065 01bb d792 5029 235f 7092 0b03 8010
	0x0030:  0404 74f3 0000 0101 080a d23a 81ff dbbe
	0x0040:  1066
03:53:39.841035 IP 192.168.0.101.33268 > 18.115.89.167.in-addr.arpa.submission: Flags [P.], seq 37:49, ack 192, win 501, options [nop,nop,TS val 1657381271 ecr 2613950604], length 12
	0x0000:  0840 f3b2 16f8 9c5a 4472 ec13 0800 4510
	0x0010:  0040 9def 4000 4006 c13f c0a8 0065 a759
	0x0020:  7312 81f4 024b 583b 82b1 359a dbf3 8018
	0x0030:  01f5 dbab 0000 0101 080a 62c9 a197 9bcd
	0x0040:  b88c 6175 7468 206c 6f67 696e 0d0a
03:53:39.882040 IP 192.168.0.101.47923 > 192.168.0.1.domain: 34972+ PTR? 167.11.71.40.in-addr.arpa. (43)
	0x0000:  0840 f3b2 16f8 9c5a 4472 ec13 0800 4500
	0x0010:  0047 5787 4000 4011 6168 c0a8 0065 c0a8
	0x0020:  0001 bb33 0035 0033 81fb 889c 0100 0001
	0x0030:  0000 0000 0000 0331 3637 0231 3102 3731
	0x0040:  0234 3007 696e 2d61 6464 7204 6172 7061
	0x0050:  0000 0c00 01
03:53:39.987879 IP 18.115.89.167.in-addr.arpa.submission > 192.168.0.101.33268: Flags [P.], seq 192:210, ack 49, win 57, options [nop,nop,TS val 2613952422 ecr 1657381271], length 18
	0x0000:  9c5a 4472 ec13 0840 f3b2 16f8 0800 4500
	0x0010:  0046 63c1 4000 3606 0578 a759 7312 c0a8
	0x0020:  0065 024b 81f4 359a dbf3 583b 82bd 8018
	0x0030:  0039 60d0 0000 0101 080a 9bcd bfa6 62c9
	0x0040:  a197 3333 3420 5658 4e6c 636d 3568 6257
	0x0050:  5536 0d0a
03:53:39.987939 IP 192.168.0.101.33268 > 18.115.89.167.in-addr.arpa.submission: Flags [.], ack 210, win 501, options [nop,nop,TS val 1657381418 ecr 2613952422], length 0
	0x0000:  0840 f3b2 16f8 9c5a 4472 ec13 0800 4510
	0x0010:  0034 9df0 4000 4006 c14a c0a8 0065 a759
	0x0020:  7312 81f4 024b 583b 82bd 359a dc05 8010
	0x0030:  01f5 db9f 0000 0101 080a 62c9 a22a 9bcd
	0x0040:  bfa6
03:53:41.180144 IP 192.168.0.1.domain > 192.168.0.101.47923: 34972 NXDomain 0/1/0 (120)
	0x0000:  9c5a 4472 ec13 0840 f3b2 16f8 0800 4500
	0x0010:  0094 2827 0000 4011 d07b c0a8 0001 c0a8
	0x0020:  0065 0035 bb33 0080 3a2c 889c 8183 0001
	0x0030:  0000 0001 0000 0331 3637 0231 3102 3731
	0x0040:  0234 3007 696e 2d61 6464 7204 6172 7061
	0x0050:  0000 0c00 01c0 1000 0600 0100 0003 8400
	0x0060:  4107 6e73 312d 3230 3109 617a 7572 652d
	0x0070:  646e 7303 636f 6d00 066d 736e 6873 7409
	0x0080:  6d69 6372 6f73 6f66 7403 636f 6d00 0000
	0x0090:  0001 0000 0384 0000 012c 0009 3a80 0000
	0x00a0:  0e10
03:53:41.842572 IP 192.168.0.101.33268 > 18.115.89.167.in-addr.arpa.submission: Flags [P.], seq 49:63, ack 210, win 501, options [nop,nop,TS val 1657383273 ecr 2613952422], length 14
	0x0000:  0840 f3b2 16f8 9c5a 4472 ec13 0800 4510
	0x0010:  0042 9df1 4000 4006 c13b c0a8 0065 a759
	0x0020:  7312 81f4 024b 583b 82bd 359a dc05 8018
	0x0030:  01f5 dbad 0000 0101 080a 62c9 a969 9bcd
	0x0040:  bfa6 6258 6c73 6232 6470 6267 3d3d 0d0a
03:53:41.988150 IP 18.115.89.167.in-addr.arpa.submission > 192.168.0.101.33268: Flags [P.], seq 210:228, ack 63, win 57, options [nop,nop,TS val 2613954423 ecr 1657383273], length 18
	0x0000:  9c5a 4472 ec13 0840 f3b2 16f8 0800 4500
	0x0010:  0046 63c2 4000 3606 0577 a759 7312 c0a8
	0x0020:  0065 024b 81f4 359a dc05 583b 82cb 8018
	0x0030:  0039 2e26 0000 0101 080a 9bcd c777 62c9
	0x0040:  a969 3333 3420 5547 467a 6333 6476 636d
	0x0050:  5136 0d0a
03:53:41.988240 IP 192.168.0.101.33268 > 18.115.89.167.in-addr.arpa.submission: Flags [.], ack 228, win 501, options [nop,nop,TS val 1657383418 ecr 2613954423], length 0
	0x0000:  0840 f3b2 16f8 9c5a 4472 ec13 0800 4510
	0x0010:  0034 9df2 4000 4006 c148 c0a8 0065 a759
	0x0020:  7312 81f4 024b 583b 82cb 359a dc17 8010
	0x0030:  01f5 db9f 0000 0101 080a 62c9 a9fa 9bcd
	0x0040:  c777
03:53:43.844143 IP 192.168.0.101.33268 > 18.115.89.167.in-addr.arpa.submission: Flags [P.], seq 63:85, ack 228, win 501, options [nop,nop,TS val 1657385274 ecr 2613954423], length 22
	0x0000:  0840 f3b2 16f8 9c5a 4472 ec13 0800 4510
	0x0010:  004a 9df3 4000 4006 c131 c0a8 0065 a759
	0x0020:  7312 81f4 024b 583b 82cb 359a dc17 8018
	0x0030:  01f5 dbb5 0000 0101 080a 62c9 b13a 9bcd
	0x0040:  c777 6258 6c77 5958 4e7a 6432 3979 5a44
	0x0050:  6b34 4f54 6768 0d0a
03:53:44.028724 IP 18.115.89.167.in-addr.arpa.submission > 192.168.0.101.33268: Flags [.], ack 85, win 57, options [nop,nop,TS val 2613956464 ecr 1657385274], length 0
	0x0000:  9c5a 4472 ec13 0840 f3b2 16f8 0800 4500
	0x0010:  0034 63c3 4000 3606 0588 a759 7312 c0a8
	0x0020:  0065 024b 81f4 359a dc17 583b 82e1 8010
	0x0030:  0039 aaba 0000 0101 080a 9bcd cf70 62c9
	0x0040:  b13a
03:53:44.057142 IP 18.115.89.167.in-addr.arpa.submission > 192.168.0.101.33268: Flags [P.], seq 228:280, ack 85, win 57, options [nop,nop,TS val 2613956492 ecr 1657385274], length 52
	0x0000:  9c5a 4472 ec13 0840 f3b2 16f8 0800 4500
	0x0010:  0068 63c4 4000 3606 0553 a759 7312 c0a8
	0x0020:  0065 024b 81f4 359a dc17 583b 82e1 8018
	0x0030:  0039 be60 0000 0101 080a 9bcd cf8c 62c9
	0x0040:  b13a 3533 3520 4175 7468 656e 7469 6361
	0x0050:  7469 6f6e 2066 6169 6c65 643a 2042 6164
	0x0060:  2075 7365 726e 616d 6520 2f20 7061 7373
	0x0070:  776f 7264 0d0a
03:53:44.057224 IP 192.168.0.101.33268 > 18.115.89.167.in-addr.arpa.submission: Flags [.], ack 280, win 501, options [nop,nop,TS val 1657385487 ecr 2613956492], length 0
	0x0000:  0840 f3b2 16f8 9c5a 4472 ec13 0800 4510
	0x0010:  0034 9df4 4000 4006 c146 c0a8 0065 a759
	0x0020:  7312 81f4 024b 583b 82e1 359a dc4b 8010
	0x0030:  01f5 db9f 0000 0101 080a 62c9 b20f 9bcd
	0x0040:  cf8c
03:53:44.057734 IP 18.115.89.167.in-addr.arpa.submission > 192.168.0.101.33268: Flags [F.], seq 280, ack 85, win 57, options [nop,nop,TS val 2613956492 ecr 1657385274], length 0
	0x0000:  9c5a 4472 ec13 0840 f3b2 16f8 0800 4500
	0x0010:  0034 63c5 4000 3606 0586 a759 7312 c0a8
	0x0020:  0065 024b 81f4 359a dc4b 583b 82e1 8011
	0x0030:  0039 aa69 0000 0101 080a 9bcd cf8c 62c9
	0x0040:  b13a
03:53:44.057843 IP 192.168.0.101.33268 > 18.115.89.167.in-addr.arpa.submission: Flags [F.], seq 85, ack 281, win 501, options [nop,nop,TS val 1657385488 ecr 2613956492], length 0
	0x0000:  0840 f3b2 16f8 9c5a 4472 ec13 0800 4510
	0x0010:  0034 9df5 4000 4006 c145 c0a8 0065 a759
	0x0020:  7312 81f4 024b 583b 82e1 359a dc4c 8011
	0x0030:  01f5 db9f 0000 0101 080a 62c9 b210 9bcd
	0x0040:  cf8c
03:53:44.203659 IP 18.115.89.167.in-addr.arpa.submission > 192.168.0.101.33268: Flags [.], ack 86, win 57, options [nop,nop,TS val 2613956638 ecr 1657385488], length 0
	0x0000:  9c5a 4472 ec13 0840 f3b2 16f8 0800 4500
	0x0010:  0034 63c6 4000 3606 0585 a759 7312 c0a8
	0x0020:  0065 024b 81f4 359a dc4c 583b 82e2 8010
	0x0030:  0039 a900 0000 0101 080a 9bcd d01e 62c9
	0x0040:  b210
03:54:11.987789 ARP, Request who-has 192.168.0.100 tell 192.168.0.1, length 46
	0x0000:  ffff ffff ffff 0840 f3b2 16f8 0806 0001
	0x0010:  0800 0604 0001 0840 f3b2 16f8 c0a8 0001
	0x0020:  0000 0000 0000 c0a8 0064 8052 d500 0000
	0x0030:  0000 8062 73b6 0000 0036 0000
03:54:12.649963 IP 192.168.0.101.60957 > 192.168.0.1.domain: 10493+ PTR? 100.0.168.192.in-addr.arpa. (44)
	0x0000:  0840 f3b2 16f8 9c5a 4472 ec13 0800 4500
	0x0010:  0048 5df8 4000 4011 5af6 c0a8 0065 c0a8
	0x0020:  0001 ee1d 0035 0034 81fc 28fd 0100 0001
	0x0030:  0000 0000 0000 0331 3030 0130 0331 3638
	0x0040:  0331 3932 0769 6e2d 6164 6472 0461 7270
	0x0050:  6100 000c 0001
03:54:12.651943 IP 192.168.0.1.domain > 192.168.0.101.60957: 10493* 1/0/0 PTR 192.168.0.100. (71)
	0x0000:  9c5a 4472 ec13 0840 f3b2 16f8 0800 4500
	0x0010:  0063 282b 0000 4011 d0a8 c0a8 0001 c0a8
	0x0020:  0065 0035 ee1d 004f b896 28fd 8580 0001
	0x0030:  0001 0000 0000 0331 3030 0130 0331 3638
	0x0040:  0331 3932 0769 6e2d 6164 6472 0461 7270
	0x0050:  6100 000c 0001 c00c 000c 0001 0000 0000
	0x0060:  000f 0331 3932 0331 3638 0130 0331 3030
	0x0070:  00
03:54:13.756774 IP 40.71.11.167.https > 192.168.0.101.55186: Flags [R.], seq 1, ack 1, win 0, length 0
	0x0000:  9c5a 4472 ec13 0840 f3b2 16f8 0800 4500
	0x0010:  0028 2f13 4000 6906 edc1 2847 0ba7 c0a8
	0x0020:  0065 01bb d792 5029 235f 7092 0b03 5014
	0x0030:  0000 f269 0000 0000 0000 0000
03:54:14.778871 IP 40.71.11.167.https > 192.168.0.101.55184: Flags [R.], seq 1, ack 1, win 0, length 0
	0x0000:  9c5a 4472 ec13 0840 f3b2 16f8 0800 4500
	0x0010:  0028 62d8 4000 6a06 b8fc 2847 0ba7 c0a8
	0x0020:  0065 01bb d790 9ce8 9c43 fbbf 9605 5014
	0x0030:  0000 1698 0000 0000 0000 0000
03:54:14.801191 ARP, Request who-has 192.168.0.100 tell 192.168.0.1, length 46
	0x0000:  ffff ffff ffff 0840 f3b2 16f8 0806 0001
	0x0010:  0800 0604 0001 0840 f3b2 16f8 c0a8 0001
	0x0020:  0000 0000 0000 c0a8 0064 0000 0000 0000
	0x0030:  0000 8067 0980 0000 0034 0001
03:54:34.770743 ARP, Request who-has 192.168.0.100 tell 192.168.0.1, length 46
	0x0000:  ffff ffff ffff 0840 f3b2 16f8 0806 0001
	0x0010:  0800 0604 0001 0840 f3b2 16f8 c0a8 0001
	0x0020:  0000 0000 0000 c0a8 0064 8052 0100 0000
	0x0030:  0000 8059 de32 0000 0036 0000
03:54:53.028324 IP 192.168.0.101.34205 > 192.168.0.1.domain: 54211+ A? profile.accounts.firefox.com. (46)
	0x0000:  0840 f3b2 16f8 9c5a 4472 ec13 0800 4500
	0x0010:  004a 674a 4000 4011 51a2 c0a8 0065 c0a8
	0x0020:  0001 859d 0035 0036 81fe d3c3 0100 0001
	0x0030:  0000 0000 0000 0770 726f 6669 6c65 0861
	0x0040:  6363 6f75 6e74 7307 6669 7265 666f 7803
	0x0050:  636f 6d00 0001 0001
03:54:53.034430 IP 192.168.0.101.59299 > 192.168.0.1.domain: 39444+ A? sync-1-us-west1-g.sync.services.mozilla.com. (61)
	0x0000:  0840 f3b2 16f8 9c5a 4472 ec13 0800 4500
	0x0010:  0059 674c 4000 4011 5191 c0a8 0065 c0a8
	0x0020:  0001 e7a3 0035 0045 820d 9a14 0100 0001
	0x0030:  0000 0000 0000 1173 796e 632d 312d 7573
	0x0040:  2d77 6573 7431 2d67 0473 796e 6308 7365
	0x0050:  7276 6963 6573 076d 6f7a 696c 6c61 0363
	0x0060:  6f6d 0000 0100 01
03:54:53.035081 IP 192.168.0.1.domain > 192.168.0.101.59299: 39444* 1/0/0 A 35.186.227.140 (77)
	0x0000:  9c5a 4472 ec13 0840 f3b2 16f8 0800 4500
	0x0010:  0069 283e 0000 4011 d08f c0a8 0001 c0a8
	0x0020:  0065 0035 e7a3 0055 fc00 9a14 8580 0001
	0x0030:  0001 0000 0000 1173 796e 632d 312d 7573
	0x0040:  2d77 6573 7431 2d67 0473 796e 6308 7365
	0x0050:  7276 6963 6573 076d 6f7a 696c 6c61 0363
	0x0060:  6f6d 0000 0100 01c0 0c00 0100 0100 0000
	0x0070:  0000 0423 bae3 8c
03:54:53.035865 IP 192.168.0.101.39378 > 140.227.186.35.bc.googleusercontent.com.https: Flags [S], seq 1084481331, win 64240, options [mss 1460,sackOK,TS val 1846754786 ecr 0,nop,wscale 7], length 0
	0x0000:  0840 f3b2 16f8 9c5a 4472 ec13 0800 4500
	0x0010:  003c 2373 4000 4006 4ef5 c0a8 0065 23ba
	0x0020:  e38c 99d2 01bb 40a3 df33 0000 0000 a002
	0x0030:  faf0 c882 0000 0204 05b4 0402 080a 6e13
	0x0040:  3de2 0000 0000 0103 0307
03:54:53.037076 IP 192.168.0.1.domain > 192.168.0.101.34205: 54211 6/0/0 A 44.238.55.159, A 34.213.253.240, A 52.38.212.39, A 52.88.18.77, A 34.213.63.206, A 44.240.72.93 (142)
	0x0000:  9c5a 4472 ec13 0840 f3b2 16f8 0800 4500
	0x0010:  00aa 283f 0000 4011 d04d c0a8 0001 c0a8
	0x0020:  0065 0035 859d 0096 e2fb d3c3 8180 0001
	0x0030:  0006 0000 0000 0770 726f 6669 6c65 0861
	0x0040:  6363 6f75 6e74 7307 6669 7265 666f 7803
	0x0050:  636f 6d00 0001 0001 c00c 0001 0001 0000
	0x0060:  0033 0004 2cee 379f c00c 0001 0001 0000
	0x0070:  0033 0004 22d5 fdf0 c00c 0001 0001 0000
	0x0080:  0033 0004 3426 d427 c00c 0001 0001 0000
	0x0090:  0033 0004 3458 124d c00c 0001 0001 0000
	0x00a0:  0033 0004 22d5 3fce c00c 0001 0001 0000
	0x00b0:  0033 0004 2cf0 485d
03:54:53.037535 IP 192.168.0.101.57244 > ec2-44-238-55-159.us-west-2.compute.amazonaws.com.https: Flags [S], seq 3388998585, win 64240, options [mss 1460,sackOK,TS val 3650830130 ecr 0,nop,wscale 7], length 0
	0x0000:  0840 f3b2 16f8 9c5a 4472 ec13 0800 4500
	0x0010:  003c 2a85 4000 4006 ea9c c0a8 0065 2cee
	0x0020:  379f df9c 01bb ca00 03b9 0000 0000 a002
	0x0030:  faf0 25c9 0000 0204 05b4 0402 080a d99b
	0x0040:  3f32 0000 0000 0103 0307
03:54:53.052568 IP 140.227.186.35.bc.googleusercontent.com.https > 192.168.0.101.39378: Flags [S.], seq 2173250283, ack 1084481332, win 65535, options [mss 1430,sackOK,TS val 1218423030 ecr 1846754786,nop,wscale 8], length 0
	0x0000:  9c5a 4472 ec13 0840 f3b2 16f8 0800 4500
	0x0010:  003c 20f2 0000 7706 5a76 23ba e38c c0a8
	0x0020:  0065 01bb 99d2 8189 2aeb 40a3 df34 a012
	0x0030:  ffff 7a53 0000 0204 0596 0402 080a 489f
	0x0040:  a8f6 6e13 3de2 0103 0308
03:54:53.052678 IP 192.168.0.101.39378 > 140.227.186.35.bc.googleusercontent.com.https: Flags [.], ack 1, win 502, options [nop,nop,TS val 1846754803 ecr 1218423030], length 0
	0x0000:  0840 f3b2 16f8 9c5a 4472 ec13 0800 4500
	0x0010:  0034 2374 4000 4006 4efc c0a8 0065 23ba
	0x0020:  e38c 99d2 01bb 40a3 df34 8189 2aec 8010
	0x0030:  01f6 c87a 0000 0101 080a 6e13 3df3 489f
	0x0040:  a8f6
03:54:53.057032 IP 192.168.0.101.39378 > 140.227.186.35.bc.googleusercontent.com.https: Flags [P.], seq 1:664, ack 1, win 502, options [nop,nop,TS val 1846754807 ecr 1218423030], length 663
	0x0000:  0840 f3b2 16f8 9c5a 4472 ec13 0800 4500
	0x0010:  02cb 2375 4000 4006 4c64 c0a8 0065 23ba
	0x0020:  e38c 99d2 01bb 40a3 df34 8189 2aec 8018
	0x0030:  01f6 cb11 0000 0101 080a 6e13 3df7 489f
	0x0040:  a8f6 1603 0102 9201 0002 8e03 03ad 7c18
	0x0050:  e5d7 e382 e504 29c5 9575 05ad 7994 be41
	0x0060:  0541 e0c8 bc8f 0b59 dc76 727b 2720 0783
	0x0070:  9b80 573a bca1 a5ce 9328 9da2 4fc8 5c1a
	0x0080:  5b60 a181 4905 949f f8d4 4abc 375e 0024
	0x0090:  1301 1303 1302 c02b c02f cca9 cca8 c02c
	0x00a0:  c030 c00a c009 c013 c014 009c 009d 002f
	0x00b0:  0035 000a 0100 0221 0000 0030 002e 0000
	0x00c0:  2b73 796e 632d 312d 7573 2d77 6573 7431
	0x00d0:  2d67 2e73 796e 632e 7365 7276 6963 6573
	0x00e0:  2e6d 6f7a 696c 6c61 2e63 6f6d 0017 0000
	0x00f0:  ff01 0001 0000 0a00 0e00 0c00 1d00 1700
	0x0100:  1800 1901 0001 0100 0b00 0201 0000 1000
	0x0110:  0e00 0c02 6832 0868 7474 702f 312e 3100
	0x0120:  0500 0501 0000 0000 0033 006b 0069 001d
	0x0130:  0020 81ef 55bb 9796 4d45 afc2 c8fe b54f
	0x0140:  56b4 a79e 145b a827 d013 79d6 f380 a91c
	0x0150:  4177 0017 0041 0449 d15c 9e13 0c6a e04e
	0x0160:  c294 ce47 af80 08e5 1ef9 b493 a199 32f9
	0x0170:  f9f4 5317 4abd c3b7 c253 b0e9 e09d a0af
	0x0180:  3bff 2462 fb7b 62a3 adf5 86f2 2c05 358f
	0x0190:  990c 5daf 8b96 4200 2b00 0504 0304 0303
	0x01a0:  000d 0018 0016 0403 0503 0603 0804 0805
	0x01b0:  0806 0401 0501 0601 0203 0201 002d 0002
	0x01c0:  0101 001c 0002 4001 0029 010d 00e8 00e2
	0x01d0:  014d 044c e25d a5d4 72bc 42ef 2b8a 0284
	0x01e0:  487b e923 26d8 a1ac 73c9 90bc 6299 d680
	0x01f0:  4ba3 59bc 31d3 86f5 4784 97ea 8f74 3a0f
	0x0200:  9624 4664 53d3 24fb 76bc e129 23c6 622b
	0x0210:  ed7e 4bf7 eaa8 4823 7fcc 47f0 940e 43f6
	0x0220:  3fa2 ac57 59d7 225a 4639 3fc0 d2b4 255a
	0x0230:  326d f5b1 ccc4 ef51 495f 09a8 dd19 4304
	0x0240:  b4c8 8781 eb57 a5ec e62b 51b8 46f8 61c1
	0x0250:  2d98 2f68 8f22 7729 e4dc bf84 3406 af5b
	0x0260:  c721 4ad4 4bdd 2b2b ad04 1087 6a2e 872d
	0x0270:  cc61 140d 3589 0f40 02a1 612c 0832 8be8
	0x0280:  96a0 582c 7f2b 1734 6638 7aa4 5999 c8b7
	0x0290:  a59d bf2a 626a ab99 3ceb 2f14 5e6a 42ff
	0x02a0:  e840 25cf c0bf 5c03 0ef9 2ea8 a2ca 8c1c
	0x02b0:  40ba bb39 48e9 0021 20bb 6a53 8e98 37f0
	0x02c0:  6cb1 b576 a0d0 0fd7 9fe6 8320 0480 3162
	0x02d0:  587a 2f29 ba1b 65c3 6e
03:54:53.072592 IP 140.227.186.35.bc.googleusercontent.com.https > 192.168.0.101.39378: Flags [.], ack 664, win 262, options [nop,nop,TS val 1218423050 ecr 1846754807], length 0
	0x0000:  9c5a 4472 ec13 0840 f3b2 16f8 0800 4500
	0x0010:  0034 20fd 0000 7706 5a73 23ba e38c c0a8
	0x0020:  0065 01bb 99d2 8189 2aec 40a3 e1cb 8010
	0x0030:  0106 a53c 0000 0101 080a 489f a90a 6e13
	0x0040:  3df7
03:54:53.096377 IP 140.227.186.35.bc.googleusercontent.com.https > 192.168.0.101.39378: Flags [P.], seq 1:213, ack 664, win 262, options [nop,nop,TS val 1218423074 ecr 1846754807], length 212
	0x0000:  9c5a 4472 ec13 0840 f3b2 16f8 0800 4580
	0x0010:  0108 20fe 0000 7806 581e 23ba e38c c0a8
	0x0020:  0065 01bb 99d2 8189 2aec 40a3 e1cb 8018
	0x0030:  0106 764c 0000 0101 080a 489f a922 6e13
	0x0040:  3df7 1603 0300 8002 0000 7c03 0315 40d8
	0x0050:  f181 7f25 a855 1d53 5cda 4b50 cc2e 0956
	0x0060:  4b38 bb86 b94b d410 5df0 e33a 7620 0783
	0x0070:  9b80 573a bca1 a5ce 9328 9da2 4fc8 5c1a
	0x0080:  5b60 a181 4905 949f f8d4 4abc 375e 1301
	0x0090:  0000 3400 2900 0200 0000 3300 2400 1d00
	0x00a0:  202f 28c1 717b c576 91df 3576 a504 eaf5
	0x00b0:  df83 d625 039f b716 5e62 4055 ddd9 530e
	0x00c0:  3800 2b00 0203 0414 0303 0001 0117 0303
	0x00d0:  0044 9340 b56f 6445 dfd8 1f99 994a 6fd1
	0x00e0:  134d 3c19 bf31 4763 1e52 bf40 2edc 856b
	0x00f0:  d333 f1be d1fd 7f73 9f15 6415 18d7 e3c1
	0x0100:  4f4e 1fea 83cb a8bf 4098 8665 330d 1cac
	0x0110:  c0fb 7180 40a6
03:54:53.096421 IP 192.168.0.101.39378 > 140.227.186.35.bc.googleusercontent.com.https: Flags [.], ack 213, win 501, options [nop,nop,TS val 1846754847 ecr 1218423074], length 0
	0x0000:  0840 f3b2 16f8 9c5a 4472 ec13 0800 4500
	0x0010:  0034 2376 4000 4006 4efa c0a8 0065 23ba
	0x0020:  e38c 99d2 01bb 40a3 e1cb 8189 2bc0 8010
	0x0030:  01f5 c87a 0000 0101 080a 6e13 3e1f 489f
	0x0040:  a922
03:54:53.097612 IP 192.168.0.101.39378 > 140.227.186.35.bc.googleusercontent.com.https: Flags [P.], seq 664:728, ack 213, win 501, options [nop,nop,TS val 1846754848 ecr 1218423074], length 64
	0x0000:  0840 f3b2 16f8 9c5a 4472 ec13 0800 4500
	0x0010:  0074 2377 4000 4006 4eb9 c0a8 0065 23ba
	0x0020:  e38c 99d2 01bb 40a3 e1cb 8189 2bc0 8018
	0x0030:  01f5 c8ba 0000 0101 080a 6e13 3e20 489f
	0x0040:  a922 1403 0300 0101 1703 0300 35cc 029a
	0x0050:  8a18 ec05 00d4 2a22 ab2c a00c 5e17 4c10
	0x0060:  500e 827a 0458 d09a c43d acd9 6b3c 9cad
	0x0070:  cee5 7c80 3d16 aaad 66f4 3559 e43e 69eb
	0x0080:  4fc5
03:54:53.101584 IP 192.168.0.101.39378 > 140.227.186.35.bc.googleusercontent.com.https: Flags [P.], seq 728:898, ack 213, win 501, options [nop,nop,TS val 1846754852 ecr 1218423074], length 170
	0x0000:  0840 f3b2 16f8 9c5a 4472 ec13 0800 4500
	0x0010:  00de 2378 4000 4006 4e4e c0a8 0065 23ba
	0x0020:  e38c 99d2 01bb 40a3 e20b 8189 2bc0 8018
	0x0030:  01f5 c924 0000 0101 080a 6e13 3e24 489f
	0x0040:  a922 1703 0300 a5c5 87fc a2c5 744c c2cd
	0x0050:  8c5a beee 802d b8ea 4e61 556d 075a 1b70
	0x0060:  9d93 0d6c aed9 22eb 6b5f 7e02 6c3e f68d
	0x0070:  35d8 81ef d553 85e1 5783 8937 f198 0008
	0x0080:  5c23 06e0 6ab3 cc0d 5df2 7059 b73a d264
	0x0090:  2b0f 7717 00cc fa1b 56de 2c49 8e00 f75b
	0x00a0:  aca1 53e0 b8ae cb87 4b2c 3958 1a50 c183
	0x00b0:  1cf3 c7ec 30d2 3bd7 04df 485d 4bee 3cbe
	0x00c0:  ce5f 741c fe3b 51e3 b3db 8f7a 8c12 424c
	0x00d0:  4a3a f183 e6d3 a70d f18d a9cb 6fe1 bcee
	0x00e0:  0074 3792 7040 3971 e51b 7bc4
03:54:53.101639 IP 192.168.0.101.39378 > 140.227.186.35.bc.googleusercontent.com.https: Flags [P.], seq 898:1629, ack 213, win 501, options [nop,nop,TS val 1846754852 ecr 1218423074], length 731
	0x0000:  0840 f3b2 16f8 9c5a 4472 ec13 0800 4500
	0x0010:  030f 2379 4000 4006 4c1c c0a8 0065 23ba
	0x0020:  e38c 99d2 01bb 40a3 e2b5 8189 2bc0 8018
	0x0030:  01f5 cb55 0000 0101 080a 6e13 3e24 489f
	0x0040:  a922 1703 0302 d6c5 2df2 bb32 c9f6 0160
	0x0050:  c59b f3b5 d982 5d5d 1031 6e29 3b83 dc48
	0x0060:  78da 93ff f34f cd5c ae62 d1b7 e752 d078
	0x0070:  42ee a305 7d64 efe4 9675 67d0 e39b 54f7
	0x0080:  561c 2894 c4ca f4dd 902d ae6e f25c 8dad
	0x0090:  e082 5105 a165 82c8 dd0b 5be3 48ea 10db
	0x00a0:  0170 9128 866b 9be5 ff55 38b0 fc39 df09
	0x00b0:  0a01 176e c08b f1ae a208 c665 b642 4c3e
	0x00c0:  b2d9 5a86 db2a 369e eb1a dd72 1e33 036c
	0x00d0:  2f1b aba7 bf58 f51b 6cc2 6e24 5dc5 d3ec
	0x00e0:  11e4 e772 ed8e 8fc7 9add feb0 6253 383d
	0x00f0:  6a71 b4f9 9ccd b219 0fd9 fa79 ee75 b58f
	0x0100:  53ad 8770 ca5e 2654 7bd8 f6de 6183 3b31
	0x0110:  a036 6269 7268 f457 be4c 271b 7e44 2821
	0x0120:  168f bbb2 d763 d9cf 3694 e0df ab04 8a49
	0x0130:  8774 68ea a9c9 5d32 74ab a582 fc53 dbcb
	0x0140:  bc5d c815 1bc4 9cd7 1e8c bc23 6c22 6cca
	0x0150:  0de0 f78c 449f 9e02 aab5 5328 7090 8217
	0x0160:  2cc7 94d3 5908 16d0 3eec b05b 2a96 4f65
	0x0170:  5ccf 60a7 ff82 6fd4 e397 bc42 1928 7833
	0x0180:  6541 2f80 7171 03e1 3c27 8fe6 cc97 dd95
	0x0190:  7c53 4f0f d7fb 76b6 10a1 72b4 2a94 beab
	0x01a0:  224b b225 5943 bf4a ef67 1840 716b ea0a
	0x01b0:  8910 c8a8 a157 4a6d fe9f f192 b50a b2ff
	0x01c0:  f7b5 1ca3 d687 720d 94c9 2143 a6b8 8441
	0x01d0:  f14d 4bf6 57f4 7d4b 6985 48bd 846d 7461
	0x01e0:  cd5e 87d2 c992 6fb1 1cef afa9 cf94 ac55
	0x01f0:  8c62 63e6 9018 b3ac d2ff 6253 2fbe 4b8b
	0x0200:  cd84 a461 e971 9d0a 17fe 3466 f0ad 853e
	0x0210:  ba58 8e98 5dbf 7734 09de d50f 8925 d7fd
	0x0220:  be9b 2ef8 24c5 36e0 2834 5fd1 0e16 5ef1
	0x0230:  9ba0 fd2d 46bd 1a8d 4984 eae4 ad06 1ff3
	0x0240:  33b9 c6d9 848c d9bd e775 6040 2cf1 174c
	0x0250:  aa0a 305e a226 e296 a51d aedf 3d6e 4dce
	0x0260:  2143 5b85 daaa bf8b bf5b 4eba 51f1 cfd6
	0x0270:  89c1 1ffa a0e4 cafd b029 2862 8d38 034c
	0x0280:  6acb 4447 9dc0 1efe b1f6 c2bf cba3 ec2b
	0x0290:  f369 3f4f 0ffb 50a3 4303 68eb 3dea 3077
	0x02a0:  dd9c 055b 3966 1e48 8e22 f4a2 223d 1d60
	0x02b0:  184b c6c8 4044 725b 9191 4ce2 9ee5 ed01
	0x02c0:  10de aec4 4e96 89ab 038b 3bbc a7a5 b5fa
	0x02d0:  03a0 576a 31dd cde3 054b 4e11 09d4 7d85
	0x02e0:  a113 59c2 a38a 9322 d192 7bb5 94b2 35b0
	0x02f0:  18e2 73f4 070d 3036 1eab 8b82 5ae8 acc8
	0x0300:  8fb0 0dfa 7b21 0b6c 2bac 7997 8520 5e79
	0x0310:  ed5e 2f31 0355 7ba7 a125 4c15 2f
03:54:53.112691 IP 140.227.186.35.bc.googleusercontent.com.https > 192.168.0.101.39378: Flags [P.], seq 213:793, ack 728, win 262, options [nop,nop,TS val 1218423090 ecr 1846754848], length 580
	0x0000:  9c5a 4472 ec13 0840 f3b2 16f8 0800 4500
	0x0010:  0278 210b 0000 7706 5821 23ba e38c c0a8
	0x0020:  0065 01bb 99d2 8189 2bc0 40a3 e20b 8018
	0x0030:  0106 6e0a 0000 0101 080a 489f a932 6e13
	0x0040:  3e20 1703 0302 012e 4fa6 db2a c449 d172
	0x0050:  fa52 4dba ae46 fb82 6609 21da 7093 ff44
	0x0060:  abde a6df ce9e 7846 da22 aeeb 21fd 5eb1
	0x0070:  8a45 98aa e7c0 2faa 9e77 c32e d6f9 19d3
	0x0080:  ef84 1862 7a42 65b3 59f1 b260 868f cb30
	0x0090:  2192 73df 991b a587 68eb 6a2a 9a71 ee33
	0x00a0:  e3ad 3121 beca c9b4 c620 658f f3d9 f47d
	0x00b0:  9791 d259 b5ee 789e 3948 3188 eb2b 0928
	0x00c0:  f425 e202 21eb 6707 7f3d 8061 87a6 3d44
	0x00d0:  e540 2626 eace 2784 7ac3 5e2f ff47 9f7b
	0x00e0:  30ef 0ca7 883a 3a7d 4f5d 89a4 5fc5 11e9
	0x00f0:  121e d6b7 4871 368a e0e9 ae28 7fb8 d1f2
	0x0100:  ce52 cc46 4f4a 8c58 4700 daf1 c62a d7e8
	0x0110:  abd4 9d44 1e7e f8fd 6d2e 4bd6 a526 b48e
	0x0120:  9edc 6522 015a 73c9 87b5 ff60 1ef6 bb78
	0x0130:  da1f a26c fa80 83dc 7af8 613b b190 52d8
	0x0140:  1053 2e11 5a24 aab7 f6a4 04b1 85df e5d0
	0x0150:  22ff 42e8 a67f 09c4 ba2c a672 48f6 c788
	0x0160:  18f2 d367 c7e4 21ad 23ea 2293 d0cd 6be4
	0x0170:  ca7b 9af7 9887 f9a8 ddc4 acea ca43 a327
	0x0180:  4bf0 5d45 0bc2 e5c0 ccf1 833b 0606 f4fe
	0x0190:  c254 2857 a69e 0f16 184f 885b 41eb 8276
	0x01a0:  3bd2 1707 ebcc d023 d73c fd48 198f 002a
	0x01b0:  1d23 ff5b 9059 7d0c d0d9 44d5 e10d bb83
	0x01c0:  5e25 cd91 07b3 a323 1504 dde0 e0a5 f017
	0x01d0:  9fed 4ff2 a41e 704a 1fdc 5691 169c 6dea
	0x01e0:  5414 8192 dfd5 0532 b3f8 82a2 a2ff b26a
	0x01f0:  7583 abd3 2ca6 b54a a661 d953 1371 298f
	0x0200:  762d f9ca ddfe 8fff f5de a490 fe13 ddd5
	0x0210:  0213 0278 7fff 5e9b 9615 0e8e da9d 2f03
	0x0220:  d335 a4c6 aa6d 9bf5 d912 0265 25b5 c524
	0x0230:  23ff 4494 809c e7dd af29 d1b8 a4a1 48b5
	0x0240:  b528 b351 56b8 7009 1703 0300 394c 0c4a
	0x0250:  df86 1b8d 11eb 5616 a90b 2133 b65f c9d2
	0x0260:  547b 481c d6f9 b5ed 2b10 76d6 68aa 592d
	0x0270:  13b7 561c f3a6 438b 3bc3 21fa 7bb4 7990
	0x0280:  c371 5c2f 0ce0
03:54:53.112789 IP 192.168.0.101.39378 > 140.227.186.35.bc.googleusercontent.com.https: Flags [.], ack 793, win 501, options [nop,nop,TS val 1846754863 ecr 1218423090], length 0
	0x0000:  0840 f3b2 16f8 9c5a 4472 ec13 0800 4500
	0x0010:  0034 237a 4000 4006 4ef6 c0a8 0065 23ba
	0x0020:  e38c 99d2 01bb 40a3 e590 8189 2e04 8010
	0x0030:  01f5 c87a 0000 0101 080a 6e13 3e2f 489f
	0x0040:  a932
03:54:53.113167 IP 192.168.0.101.39378 > 140.227.186.35.bc.googleusercontent.com.https: Flags [P.], seq 1629:1660, ack 793, win 501, options [nop,nop,TS val 1846754863 ecr 1218423090], length 31
	0x0000:  0840 f3b2 16f8 9c5a 4472 ec13 0800 4500
	0x0010:  0053 237b 4000 4006 4ed6 c0a8 0065 23ba
	0x0020:  e38c 99d2 01bb 40a3 e590 8189 2e04 8018
	0x0030:  01f5 c899 0000 0101 080a 6e13 3e2f 489f
	0x0040:  a932 1703 0300 1aee 531c 1b9d 13d4 1d77
	0x0050:  e46d 4b30 9efb f714 d12b 6a4a d731 c50e
	0x0060:  92
03:54:53.117106 IP 140.227.186.35.bc.googleusercontent.com.https > 192.168.0.101.39378: Flags [P.], seq 793:824, ack 898, win 267, options [nop,nop,TS val 1218423095 ecr 1846754852], length 31
	0x0000:  9c5a 4472 ec13 0840 f3b2 16f8 0800 4500
	0x0010:  0053 210c 0000 7706 5a45 23ba e38c c0a8
	0x0020:  0065 01bb 99d2 8189 2e04 40a3 e2b5 8018
	0x0030:  010b ea85 0000 0101 080a 489f a937 6e13
	0x0040:  3e24 1703 0300 1aba 86cb c780 0e31 1493
	0x0050:  dc70 9f8a 6bc0 cad4 1260 2c72 832a d9d2
	0x0060:  c2
03:54:53.117189 IP 192.168.0.101.39378 > 140.227.186.35.bc.googleusercontent.com.https: Flags [.], ack 824, win 501, options [nop,nop,TS val 1846754867 ecr 1218423095], length 0
	0x0000:  0840 f3b2 16f8 9c5a 4472 ec13 0800 4500
	0x0010:  0034 237c 4000 4006 4ef4 c0a8 0065 23ba
	0x0020:  e38c 99d2 01bb 40a3 e5af 8189 2e23 8010
	0x0030:  01f5 c87a 0000 0101 080a 6e13 3e33 489f
	0x0040:  a937
03:54:53.123033 IP 140.227.186.35.bc.googleusercontent.com.https > 192.168.0.101.39378: Flags [.], ack 1629, win 273, options [nop,nop,TS val 1218423101 ecr 1846754852], length 0
	0x0000:  9c5a 4472 ec13 0840 f3b2 16f8 0800 4500
	0x0010:  0034 210e 0000 7706 5a62 23ba e38c c0a8
	0x0020:  0065 01bb 99d2 8189 2e23 40a3 e590 8010
	0x0030:  0111 9dd5 0000 0101 080a 489f a93d 6e13
	0x0040:  3e24
03:54:53.128115 IP 140.227.186.35.bc.googleusercontent.com.https > 192.168.0.101.39378: Flags [.], ack 1660, win 273, options [nop,nop,TS val 1218423106 ecr 1846754863], length 0
	0x0000:  9c5a 4472 ec13 0840 f3b2 16f8 0800 4500
	0x0010:  0034 2111 0000 7706 5a5f 23ba e38c c0a8
	0x0020:  0065 01bb 99d2 8189 2e23 40a3 e5af 8010
	0x0030:  0111 9da6 0000 0101 080a 489f a942 6e13
	0x0040:  3e2f
03:54:53.247316 IP ec2-44-238-55-159.us-west-2.compute.amazonaws.com.https > 192.168.0.101.57244: Flags [S.], seq 34353885, ack 3388998586, win 26847, options [mss 1452,sackOK,TS val 650631603 ecr 3650830130,nop,wscale 8], length 0
	0x0000:  9c5a 4472 ec13 0840 f3b2 16f8 0800 4500
	0x0010:  003c 0000 4000 dc06 7921 2cee 379f c0a8
	0x0020:  0065 01bb df9c 020c 32dd ca00 03ba a012
	0x0030:  68df bc38 0000 0204 05ac 0402 080a 26c7
	0x0040:  d9b3 d99b 3f32 0103 0308
03:54:53.247437 IP 192.168.0.101.57244 > ec2-44-238-55-159.us-west-2.compute.amazonaws.com.https: Flags [.], ack 1, win 502, options [nop,nop,TS val 3650830340 ecr 650631603], length 0
	0x0000:  0840 f3b2 16f8 9c5a 4472 ec13 0800 4500
	0x0010:  0034 2a86 4000 4006 eaa3 c0a8 0065 2cee
	0x0020:  379f df9c 01bb ca00 03ba 020c 32de 8010
	0x0030:  01f6 25c1 0000 0101 080a d99b 4004 26c7
	0x0040:  d9b3
03:54:53.255372 IP 192.168.0.101.57244 > ec2-44-238-55-159.us-west-2.compute.amazonaws.com.https: Flags [P.], seq 1:518, ack 1, win 502, options [nop,nop,TS val 3650830348 ecr 650631603], length 517
	0x0000:  0840 f3b2 16f8 9c5a 4472 ec13 0800 4500
	0x0010:  0239 2a87 4000 4006 e89d c0a8 0065 2cee
	0x0020:  379f df9c 01bb ca00 03ba 020c 32de 8018
	0x0030:  01f6 27c6 0000 0101 080a d99b 400c 26c7
	0x0040:  d9b3 1603 0102 0001 0001 fc03 03ea 83d3
	0x0050:  9c70 f9c9 1328 c83d ec0e e67d b2ce 51d2
	0x0060:  0326 23ff ff4c 5794 ce44 2725 e420 44c7
	0x0070:  9a36 a69f 687b a36b a894 a288 05b7 85d6
	0x0080:  a8ab d1f4 f3f2 3e95 29f7 3b62 876b 0024
	0x0090:  1301 1303 1302 c02b c02f cca9 cca8 c02c
	0x00a0:  c030 c00a c009 c013 c014 009c 009d 002f
	0x00b0:  0035 000a 0100 018f 0000 0021 001f 0000
	0x00c0:  1c70 726f 6669 6c65 2e61 6363 6f75 6e74
	0x00d0:  732e 6669 7265 666f 782e 636f 6d00 1700
	0x00e0:  00ff 0100 0100 000a 000e 000c 001d 0017
	0x00f0:  0018 0019 0100 0101 000b 0002 0100 0023
	0x0100:  0000 0010 000e 000c 0268 3208 6874 7470
	0x0110:  2f31 2e31 0005 0005 0100 0000 0000 3300
	0x0120:  6b00 6900 1d00 20e1 dd2f 36cf 0da0 c8fe
	0x0130:  011b 68c1 c293 3663 6478 fd99 3366 1c53
	0x0140:  21c0 4026 6cb8 6500 1700 4104 1ee7 05a9
	0x0150:  ea60 d59c 9a5e 3576 49bc f945 d11f d071
	0x0160:  d655 868a 822b 06ac 5877 fe1e ece4 b2a5
	0x0170:  0c7d 5e82 6c55 26cf 2701 792d 94b6 533d
	0x0180:  673f 3fa7 c22c c247 d4fe b895 002b 0005
	0x0190:  0403 0403 0300 0d00 1800 1604 0305 0306
	0x01a0:  0308 0408 0508 0604 0105 0106 0102 0302
	0x01b0:  0100 2d00 0201 0100 1c00 0240 0100 1500
	0x01c0:  8600 0000 0000 0000 0000 0000 0000 0000
	0x01d0:  0000 0000 0000 0000 0000 0000 0000 0000
	0x01e0:  0000 0000 0000 0000 0000 0000 0000 0000
	0x01f0:  0000 0000 0000 0000 0000 0000 0000 0000
	0x0200:  0000 0000 0000 0000 0000 0000 0000 0000
	0x0210:  0000 0000 0000 0000 0000 0000 0000 0000
	0x0220:  0000 0000 0000 0000 0000 0000 0000 0000
	0x0230:  0000 0000 0000 0000 0000 0000 0000 0000
	0x0240:  0000 0000 0000 00
03:54:53.293843 IP 140.227.186.35.bc.googleusercontent.com.https > 192.168.0.101.39378: Flags [P.], seq 824:1219, ack 1660, win 273, options [nop,nop,TS val 1218423272 ecr 1846754867], length 395
	0x0000:  9c5a 4472 ec13 0840 f3b2 16f8 0800 4500
	0x0010:  01bf 21b5 0000 7706 5830 23ba e38c c0a8
	0x0020:  0065 01bb 99d2 8189 2e23 40a3 e5af 8018
	0x0030:  0111 6a2b 0000 0101 080a 489f a9e8 6e13
	0x0040:  3e33 1703 0301 8661 a017 54e1 6f54 e51f
	0x0050:  e9ad db43 5ab7 d619 d249 34f3 328e 7995
	0x0060:  290f b6ff b9c2 837e 16bd 9c15 a9b4 bbf2
	0x0070:  5398 dd73 07e6 2a59 aa13 27bf c04c 6644
	0x0080:  252d 023a 58c0 6016 b440 1484 f8a0 84aa
	0x0090:  b226 c8b2 f3ba 12ed 6f42 9c76 323a 2de7
	0x00a0:  9969 059b 6db7 a3ad 3fc5 1262 4104 8bc9
	0x00b0:  274f 6027 0c14 ceaf 6cd5 b57b 5cbd 3be6
	0x00c0:  7fcf b1d1 1b58 776e 08fe 928b e858 531c
	0x00d0:  bd85 e837 9e9b ecf3 31f6 dde1 2c84 e970
	0x00e0:  6c6c 55a5 af9a 0adc ddc6 7498 0b2e 7442
	0x00f0:  450a 5cae 51d0 7562 5d8a dff3 293b f09a
	0x0100:  5678 3ccf aa03 1a46 901d be45 ec74 6ce1
	0x0110:  07fd 00d1 cfde fa21 5d15 c646 51ac fb48
	0x0120:  77ed ab4a 58f7 fe49 5d7a a58b 3b9f 440a
	0x0130:  32e0 5c7b 6f8c ff94 7f58 3b7b 1590 dcac
	0x0140:  97ab e21b a683 cbfc d22c 61fc ed0b 6603
	0x0150:  e55c 7f54 48f5 b51e 4397 4ec0 7ab8 3786
	0x0160:  7638 f4c8 5d46 3c00 fccc cde8 c992 0c5e
	0x0170:  8b99 a55c daca b260 21d5 9f9a b9a2 3d69
	0x0180:  74c4 3705 d8cc d18e 2dcf b47b 0b25 f64a
	0x0190:  6820 17dd 9c1a 3857 0a93 b876 0d41 f39a
	0x01a0:  d991 f51d 7a99 f239 6bf2 b2d9 7229 ff4b
	0x01b0:  da9b 29b3 f0f6 8d1f 4991 da64 b311 1f69
	0x01c0:  8e76 f9f0 3397 d5d2 9b11 833e a3
03:54:53.293885 IP 192.168.0.101.39378 > 140.227.186.35.bc.googleusercontent.com.https: Flags [.], ack 1219, win 501, options [nop,nop,TS val 1846755044 ecr 1218423272], length 0
	0x0000:  0840 f3b2 16f8 9c5a 4472 ec13 0800 4500
	0x0010:  0034 237d 4000 4006 4ef3 c0a8 0065 23ba
	0x0020:  e38c 99d2 01bb 40a3 e5af 8189 2fae 8010
	0x0030:  01f5 c87a 0000 0101 080a 6e13 3ee4 489f
	0x0040:  a9e8
03:54:53.293843 IP 140.227.186.35.bc.googleusercontent.com.https > 192.168.0.101.39378: Flags [P.], seq 1219:1514, ack 1660, win 273, options [nop,nop,TS val 1218423272 ecr 1846754867], length 295
	0x0000:  9c5a 4472 ec13 0840 f3b2 16f8 0800 4500
	0x0010:  015b 21b6 0000 7706 5893 23ba e38c c0a8
	0x0020:  0065 01bb 99d2 8189 2fae 40a3 e5af 8018
	0x0030:  0111 2cf5 0000 0101 080a 489f a9e8 6e13
	0x0040:  3e33 1703 0301 036f db0f b622 189a 9de1
	0x0050:  9770 0c47 2a21 8540 357c 8cbb 7010 dc19
	0x0060:  e5de 1bb8 5fe6 6f56 cadf eab7 25c3 faac
	0x0070:  7779 b4b9 3fa4 3d70 d809 64f3 7959 a20b
	0x0080:  0e4a 1771 1ad5 5f11 f5ce 96c5 9612 f5d9
	0x0090:  55c7 aba9 74ef b786 4779 c606 8b60 ec49
	0x00a0:  6bd8 4d79 b9ba c370 8d73 46f7 57dd f9e8
	0x00b0:  46d3 4cf6 ed98 c628 b8a6 99cb 1511 8276
	0x00c0:  1a46 6b0f e6b0 5889 ce36 6021 2e61 b22c
	0x00d0:  2b4b 3f79 8b39 3c85 7152 c7a6 201e f8f0
	0x00e0:  520f 0802 1f93 a585 5166 1d0b f051 6d8c
	0x00f0:  862b a609 47a9 a48f bcfe c6d4 6a12 5f53
	0x0100:  6c78 e269 f5a4 c708 5e5c 1e5d ca80 cbb5
	0x0110:  2be5 34df 98ad 22c1 a3e7 ae01 fb8d f93d
	0x0120:  58b1 dec5 7ad4 9b34 be71 c546 d653 93ed
	0x0130:  b1d9 3b5a df1b 9e02 f199 17d4 12fd 49d8
	0x0140:  dd97 a6bf 268a 1b20 4821 1703 0300 1a4e
	0x0150:  6565 aa44 f11d 4f5e 83bf 9ac7 0a1c 3701
	0x0160:  1433 e307 3bd2 b8da f0
03:54:53.293911 IP 192.168.0.101.39378 > 140.227.186.35.bc.googleusercontent.com.https: Flags [.], ack 1514, win 501, options [nop,nop,TS val 1846755044 ecr 1218423272], length 0
	0x0000:  0840 f3b2 16f8 9c5a 4472 ec13 0800 4500
	0x0010:  0034 237e 4000 4006 4ef2 c0a8 0065 23ba
	0x0020:  e38c 99d2 01bb 40a3 e5af 8189 30d5 8010
	0x0030:  01f5 c87a 0000 0101 080a 6e13 3ee4 489f
	0x0040:  a9e8
03:54:53.293843 IP 140.227.186.35.bc.googleusercontent.com.https > 192.168.0.101.39378: Flags [P.], seq 1514:1553, ack 1660, win 273, options [nop,nop,TS val 1218423272 ecr 1846754867], length 39
	0x0000:  9c5a 4472 ec13 0840 f3b2 16f8 0800 4500
	0x0010:  005b 21b7 0000 7706 5992 23ba e38c c0a8
	0x0020:  0065 01bb 99d2 8189 30d5 40a3 e5af 8018
	0x0030:  0111 d16b 0000 0101 080a 489f a9e8 6e13
	0x0040:  3e33 1703 0300 2214 7c40 3cb0 66b4 ec91
	0x0050:  17cd fe3e 7c1b dd88 fb95 9638 0c6f adda
	0x0060:  97d6 df40 7bee 7392 5e
03:54:53.293915 IP 192.168.0.101.39378 > 140.227.186.35.bc.googleusercontent.com.https: Flags [.], ack 1553, win 501, options [nop,nop,TS val 1846755044 ecr 1218423272], length 0
	0x0000:  0840 f3b2 16f8 9c5a 4472 ec13 0800 4500
	0x0010:  0034 237f 4000 4006 4ef1 c0a8 0065 23ba
	0x0020:  e38c 99d2 01bb 40a3 e5af 8189 30fc 8010
	0x0030:  01f5 c87a 0000 0101 080a 6e13 3ee4 489f
	0x0040:  a9e8
03:54:53.294438 IP 192.168.0.101.39378 > 140.227.186.35.bc.googleusercontent.com.https: Flags [P.], seq 1660:1699, ack 1553, win 501, options [nop,nop,TS val 1846755045 ecr 1218423272], length 39
	0x0000:  0840 f3b2 16f8 9c5a 4472 ec13 0800 4500
	0x0010:  005b 2380 4000 4006 4ec9 c0a8 0065 23ba
	0x0020:  e38c 99d2 01bb 40a3 e5af 8189 30fc 8018
	0x0030:  01f5 c8a1 0000 0101 080a 6e13 3ee5 489f
	0x0040:  a9e8 1703 0300 2200 efe6 94d6 9001 6c9e
	0x0050:  5ff8 6e4a 4df7 a4c4 673e 26aa f2ee 86ac
	0x0060:  02ba f416 50cb 0d21 86
03:54:53.301878 IP 192.168.0.101.39378 > 140.227.186.35.bc.googleusercontent.com.https: Flags [P.], seq 1699:2267, ack 1553, win 501, options [nop,nop,TS val 1846755052 ecr 1218423272], length 568
	0x0000:  0840 f3b2 16f8 9c5a 4472 ec13 0800 4500
	0x0010:  026c 2381 4000 4006 4cb7 c0a8 0065 23ba
	0x0020:  e38c 99d2 01bb 40a3 e5d6 8189 30fc 8018
	0x0030:  01f5 cab2 0000 0101 080a 6e13 3eec 489f
	0x0040:  a9e8 1703 0302 338e c668 bece 9bbc 3ff6
	0x0050:  634c f884 0c68 0490 fb08 00bc bb6a 93e1
	0x0060:  4a3c 39b6 40ae fca7 4ced 7bb9 6422 d4c0
	0x0070:  e425 3d05 c9eb 77f3 36d2 1372 8ed3 6d5b
	0x0080:  2609 1f57 f592 90a1 b11b bdc3 e9de 5731
	0x0090:  ec0f d32a e5b8 611e 107f 1768 9f2f fcf4
	0x00a0:  e67d 30a8 1f5f b8e4 80b8 be08 b8f9 1573
	0x00b0:  35e0 2935 8124 84b5 2ba4 9879 a390 5175
	0x00c0:  1eec 16c6 8f76 6f63 8615 3263 5982 0a8f
	0x00d0:  eaf8 9f99 651d bf6d 3499 782c 185e c82d
	0x00e0:  2f9f 629a 1a7d d6fd eed7 785d cd08 561f
	0x00f0:  78e7 6af6 bb6a 83fb c982 34f2 6bf8 699e
	0x0100:  fd10 a258 5998 15e6 5086 f6d9 40c5 5a3e
	0x0110:  34f5 0b8c 7c8c db47 b216 347f 3eb4 b490
	0x0120:  380c 499c eb0f a442 66da 5873 812d 06e1
	0x0130:  4db1 b65b e329 072c faf0 36af 951d 03d2
	0x0140:  a5cb 710f 0f3d 8f03 f1bb 9e87 6f1f 081c
	0x0150:  aa2c 13a8 7fc5 8018 3c74 598d 00f3 cd5b
	0x0160:  e781 1bfa f143 be54 2df0 1020 4d88 9988
	0x0170:  2877 eb1f 5fd8 a220 c59a 3454 9cc3 c278
	0x0180:  b221 7016 bebd 1657 0ce2 402b f4ac 2937
	0x0190:  bfdc 1790 5bc8 8b3e 881b ea8b 359a bdbc
	0x01a0:  bb05 4c34 9efe 3c9e 1c8a 7629 bfaa 7045
	0x01b0:  a904 9c38 bf88 4e98 ed82 dd22 f712 d355
	0x01c0:  0702 0b9c cb31 c8a2 2e66 6901 e33e 80ed
	0x01d0:  09ee eea0 5cb0 f43b 0060 8c9a ee58 12ea
	0x01e0:  a95c 993c deb1 ba5f 0e65 26cc 17ea b35f
	0x01f0:  15da 0b8f 0875 b76d fea1 761a 068d 6536
	0x0200:  cf95 6979 2069 a5fe 5de1 e1f0 4daf c0ef
	0x0210:  ed2c 5303 258c a725 c5f6 64a5 ff1d 2c0e
	0x0220:  fa14 9449 545f 45b0 6e5d 9ffa 500c 49d6
	0x0230:  1889 06f9 fa0e 20bd 35c8 c65e 6381 a11e
	0x0240:  6198 fbb2 1541 f675 7f4d ac67 fb5b ee22
	0x0250:  df82 7289 c540 3c88 ca46 d566 d761 bb6c
	0x0260:  02ac 9a75 d79b 4008 47e3 7016 0bcb 16ac
	0x0270:  cff0 951d 89b5 1ece ad53
03:54:53.309062 IP 140.227.186.35.bc.googleusercontent.com.https > 192.168.0.101.39378: Flags [.], ack 1699, win 273, options [nop,nop,TS val 1218423287 ecr 1846755045], length 0
	0x0000:  9c5a 4472 ec13 0840 f3b2 16f8 0800 4500
	0x0010:  0034 21c4 0000 7706 59ac 23ba e38c c0a8
	0x0020:  0065 01bb 99d2 8189 30fc 40a3 e5d6 8010
	0x0030:  0111 993b 0000 0101 080a 489f a9f7 6e13
	0x0040:  3ee5
03:54:53.318106 IP 140.227.186.35.bc.googleusercontent.com.https > 192.168.0.101.39378: Flags [.], ack 2267, win 278, options [nop,nop,TS val 1218423296 ecr 1846755052], length 0
	0x0000:  9c5a 4472 ec13 0840 f3b2 16f8 0800 4500
	0x0010:  0034 21cd 0000 7706 59a3 23ba e38c c0a8
	0x0020:  0065 01bb 99d2 8189 30fc 40a3 e80e 8010
	0x0030:  0116 96ee 0000 0101 080a 489f aa00 6e13
	0x0040:  3eec
03:54:53.464253 IP ec2-44-238-55-159.us-west-2.compute.amazonaws.com.https > 192.168.0.101.57244: Flags [.], ack 518, win 110, options [nop,nop,TS val 650631820 ecr 3650830348], length 0
	0x0000:  9c5a 4472 ec13 0840 f3b2 16f8 0800 4500
	0x0010:  0034 7383 4000 dc06 05a6 2cee 379f c0a8
	0x0020:  0065 01bb df9c 020c 32de ca00 05bf 8010
	0x0030:  006e 4fb7 0000 0101 080a 26c7 da8c d99b
	0x0040:  400c
03:54:53.465432 IP ec2-44-238-55-159.us-west-2.compute.amazonaws.com.https > 192.168.0.101.57244: Flags [.], seq 1:1441, ack 518, win 110, options [nop,nop,TS val 650631821 ecr 3650830348], length 1440
	0x0000:  9c5a 4472 ec13 0840 f3b2 16f8 0800 4500
	0x0010:  05d4 7384 4000 dc06 0005 2cee 379f c0a8
	0x0020:  0065 01bb df9c 020c 32de ca00 05bf 8010
	0x0030:  006e 93fd 0000 0101 080a 26c7 da8d d99b
	0x0040:  400c 1603 0300 5902 0000 5503 039c c181
	0x0050:  66df 42f7 bbe6 d6d5 7b9c 74be 5e64 8202
	0x0060:  568d e45e b5bd caf6 69d1 58d5 a320 5572
	0x0070:  e2eb 80e7 e6be 7fb8 a984 6216 65e3 48d6
	0x0080:  1667 6fe3 23b7 9422 8b2d 149b 6490 c02f
	0x0090:  0000 0dff 0100 0100 000b 0004 0300 0102
	0x00a0:  1603 030c 900b 000c 8c00 0c89 0007 9530
	0x00b0:  8207 9130 8206 79a0 0302 0102 0210 0f47
	0x00c0:  54b2 8a6d 8c5c bb12 fa06 fb8d 7e2a 300d
	0x00d0:  0609 2a86 4886 f70d 0101 0b05 0030 4f31
	0x00e0:  0b30 0906 0355 0406 1302 5553 3115 3013
	0x00f0:  0603 5504 0a13 0c44 6967 6943 6572 7420
	0x0100:  496e 6331 2930 2706 0355 0403 1320 4469
	0x0110:  6769 4365 7274 2054 4c53 2052 5341 2053
	0x0120:  4841 3235 3620 3230 3230 2043 4131 301e
	0x0130:  170d 3231 3036 3031 3030 3030 3030 5a17
	0x0140:  0d32 3230 3730 3232 3335 3935 395a 3076
	0x0150:  310b 3009 0603 5504 0613 0255 5331 1330
	0x0160:  1106 0355 0408 130a 4361 6c69 666f 726e
	0x0170:  6961 3116 3014 0603 5504 0713 0d4d 6f75
	0x0180:  6e74 6169 6e20 5669 6577 311b 3019 0603
	0x0190:  5504 0a13 124d 6f7a 696c 6c61 2046 6f75
	0x01a0:  6e64 6174 696f 6e31 1d30 1b06 0355 0403
	0x01b0:  1314 6163 636f 756e 7473 2e66 6972 6566
	0x01c0:  6f78 2e63 6f6d 3082 0122 300d 0609 2a86
	0x01d0:  4886 f70d 0101 0105 0003 8201 0f00 3082
	0x01e0:  010a 0282 0101 00bd d572 b67c 8d5b 53bf
	0x01f0:  0da5 343c 016b c16d fe17 ffd2 56a5 ea15
	0x0200:  9d20 6ca6 9fd8 c6e6 3726 b33d 764d 8385
	0x0210:  20bc 31f9 e31d 26a9 0308 e3cc 4c91 4bd6
	0x0220:  d08c 7814 6f4f 231c d0e5 38d0 290f 95f9
	0x0230:  4ad7 28e0 c539 e6b1 c4f3 7edc 50fd 4d34
	0x0240:  963b 3356 d725 5d55 f901 4fa3 4522 2e0f
	0x0250:  f7b4 30a1 347a d192 379b cec0 1e13 c61f
	0x0260:  13bc 94fd 28cc d7d2 51a7 3826 df2f dd80
	0x0270:  6b32 df4a 19bb a669 accc 4fff d53d d2e2
	0x0280:  4ba7 0221 3270 f73d f964 39d1 18f7 1c64
	0x0290:  badc 7b25 b548 11fd b057 3a55 0ebf e9c1
	0x02a0:  29a1 a1dc 6566 d97a 407a 520c 712c bb32
	0x02b0:  503f 4028 f6ca 6ff8 bda8 a77f 9be9 b6dd
	0x02c0:  95df 257e f4b2 2488 9071 1bf6 a1db 24dd
	0x02d0:  773a cbde 8376 4150 9799 8836 df01 bef3
	0x02e0:  1ea1 43a7 6571 5f02 0301 0001 a382 0440
	0x02f0:  3082 043c 301f 0603 551d 2304 1830 1680
	0x0300:  14b7 6ba2 eaa8 aa84 8c79 eab4 da0f 98b2
	0x0310:  c595 76b9 f430 1d06 0355 1d0e 0416 0414
	0x0320:  4cfb 3b8c f0c6 6d0e 19ca 19ef f76e 530a
	0x0330:  6829 48c6 3081 ed06 0355 1d11 0481 e530
	0x0340:  81e2 8214 6163 636f 756e 7473 2e66 6972
	0x0350:  6566 6f78 2e63 6f6d 8218 6170 692e 6163
	0x0360:  636f 756e 7473 2e66 6972 6566 6f78 2e63
	0x0370:  6f6d 821b 7363 7279 7074 2e61 6363 6f75
	0x0380:  6e74 732e 6669 7265 666f 782e 636f 6d82
	0x0390:  1d76 6572 6966 6965 722e 6163 636f 756e
	0x03a0:  7473 2e66 6972 6566 6f78 2e63 6f6d 821a
	0x03b0:  6f61 7574 682e 6163 636f 756e 7473 2e66
	0x03c0:  6972 6566 6f78 2e63 6f6d 821c 7072 6f66
	0x03d0:  696c 652e 6163 636f 756e 7473 2e66 6972
	0x03e0:  6566 6f78 2e63 6f6d 821c 636f 6e66 6972
	0x03f0:  6d2e 6163 636f 756e 7473 2e66 6972 6566
	0x0400:  6f78 2e63 6f6d 821c 6772 6170 6871 6c2e
	0x0410:  6163 636f 756e 7473 2e66 6972 6566 6f78
	0x0420:  2e63 6f6d 300e 0603 551d 0f01 01ff 0404
	0x0430:  0302 05a0 301d 0603 551d 2504 1630 1406
	0x0440:  082b 0601 0505 0703 0106 082b 0601 0505
	0x0450:  0703 0230 818b 0603 551d 1f04 8183 3081
	0x0460:  8030 3ea0 3ca0 3a86 3868 7474 703a 2f2f
	0x0470:  6372 6c33 2e64 6967 6963 6572 742e 636f
	0x0480:  6d2f 4469 6769 4365 7274 544c 5352 5341
	0x0490:  5348 4132 3536 3230 3230 4341 312e 6372
	0x04a0:  6c30 3ea0 3ca0 3a86 3868 7474 703a 2f2f
	0x04b0:  6372 6c34 2e64 6967 6963 6572 742e 636f
	0x04c0:  6d2f 4469 6769 4365 7274 544c 5352 5341
	0x04d0:  5348 4132 3536 3230 3230 4341 312e 6372
	0x04e0:  6c30 3e06 0355 1d20 0437 3035 3033 0606
	0x04f0:  6781 0c01 0202 3029 3027 0608 2b06 0105
	0x0500:  0507 0201 161b 6874 7470 3a2f 2f77 7777
	0x0510:  2e64 6967 6963 6572 742e 636f 6d2f 4350
	0x0520:  5330 7d06 082b 0601 0505 0701 0104 7130
	0x0530:  6f30 2406 082b 0601 0505 0730 0186 1868
	0x0540:  7474 703a 2f2f 6f63 7370 2e64 6967 6963
	0x0550:  6572 742e 636f 6d30 4706 082b 0601 0505
	0x0560:  0730 0286 3b68 7474 703a 2f2f 6361 6365
	0x0570:  7274 732e 6469 6769 6365 7274 2e63 6f6d
	0x0580:  2f44 6967 6943 6572 7454 4c53 5253 4153
	0x0590:  4841 3235 3632 3032 3043 4131 2e63 7274
	0x05a0:  300c 0603 551d 1301 01ff 0402 3000 3082
	0x05b0:  017e 060a 2b06 0104 01d6 7902 0402 0482
	0x05c0:  016e 0482 016a 0168 0076 0029 79be f09e
	0x05d0:  3939 21f0 5673 9f63 a577 e5be 577d 9c60
	0x05e0:  0af8
03:54:53.465475 IP 192.168.0.101.57244 > ec2-44-238-55-159.us-west-2.compute.amazonaws.com.https: Flags [.], ack 1441, win 501, options [nop,nop,TS val 3650830558 ecr 650631821], length 0
	0x0000:  0840 f3b2 16f8 9c5a 4472 ec13 0800 4500
	0x0010:  0034 2a88 4000 4006 eaa1 c0a8 0065 2cee
	0x0020:  379f df9c 01bb ca00 05bf 020c 387e 8010
	0x0030:  01f5 25c1 0000 0101 080a d99b 40de 26c7
	0x0040:  da8d
03:54:53.466070 IP ec2-44-238-55-159.us-west-2.compute.amazonaws.com.https > 192.168.0.101.57244: Flags [.], seq 1441:2881, ack 518, win 110, options [nop,nop,TS val 650631821 ecr 3650830348], length 1440
	0x0000:  9c5a 4472 ec13 0840 f3b2 16f8 0800 4500
	0x0010:  05d4 7385 4000 dc06 0004 2cee 379f c0a8
	0x0020:  0065 01bb df9c 020c 387e ca00 05bf 8010
	0x0030:  006e 7491 0000 0101 080a 26c7 da8d d99b
	0x0040:  400c f94d 5d26 5c25 5dc7 8400 0001 79c8
	0x0050:  b2c2 6500 0004 0300 4730 4502 2100 f32b
	0x0060:  f701 28ca 1bdf adef c8ae e88e 2ffb f931
	0x0070:  f907 e4a5 931e beb0 61b4 2617 c427 0220
	0x0080:  5843 c7de 8224 3421 d0c1 13f8 515d d5de
	0x0090:  3131 aee8 6f93 ad24 9b76 a180 bf2f 83e6
	0x00a0:  0076 0022 4545 0759 5524 5696 3fa1 2ff1
	0x00b0:  f76d 86e0 2326 63ad c04b 7f5d c683 5c6e
	0x00c0:  e20f 0200 0001 79c8 b2c2 8d00 0004 0300
	0x00d0:  4730 4502 2076 fe28 15af 4029 41f9 2f0b
	0x00e0:  15e0 dd46 4152 7696 855a c7d2 04b5 bfb9
	0x00f0:  6358 5cdf c502 2100 8e01 0188 43c9 825f
	0x0100:  8ee7 c0d2 fd58 b6eb c39c 4412 ef3a 5a52
	0x0110:  1007 e803 4453 4168 0076 0051 a3b0 f5fd
	0x0120:  0179 9c56 6db8 3778 8f0c a47a cc1b 27cb
	0x0130:  f79e 8842 9a0d fed4 8b05 e500 0001 79c8
	0x0140:  b2c2 ad00 0004 0300 4730 4502 2100 ccea
	0x0150:  fcc7 3be5 bc60 e6a7 fbc6 3c4c b38a 3532
	0x0160:  8269 9f49 91cd d8d6 a429 a192 1652 0220
	0x0170:  00a4 86b3 c178 cc3b 9c6e 931b 3ad0 e5b5
	0x0180:  299a dfe2 9dee ee80 f00c ee95 4470 af58
	0x0190:  300d 0609 2a86 4886 f70d 0101 0b05 0003
	0x01a0:  8201 0100 a7ba f44c 653d 4b01 6f79 e7f0
	0x01b0:  bfa6 37dd 5ad2 d332 ba36 7371 0b95 e2b3
	0x01c0:  0d4a 6e54 de4a a7bb dd92 fa28 26b1 6f3f
	0x01d0:  b887 d8a3 94a1 ff71 dc7f 45dd 5fe6 f642
	0x01e0:  ef2d 2098 c366 1eb5 379e 0cd1 48cb 0884
	0x01f0:  bf27 26a4 d34d 8a5a 6537 70c6 717e 78e9
	0x0200:  0c41 3a38 c39a 7ea7 d3ad 38bc 7a10 3373
	0x0210:  6975 0b27 f93e e85c 20c6 f98e 480c 5411
	0x0220:  c1cd 557c d51e cf7f 57ef eaa7 f33c 13c5
	0x0230:  7a33 01b0 c214 1e81 9ff3 6829 11a8 af26
	0x0240:  7acf 1405 713a 9159 60b6 00cb 4287 f33f
	0x0250:  5ce3 4f00 2b46 9ed9 51e2 c1c3 f134 31ce
	0x0260:  e8ba 2b4a 0787 5982 0634 2108 c086 327c
	0x0270:  b853 e120 832e 1a1e 0dde 64d7 5d11 f7e1
	0x0280:  1a67 dcd6 c61e 4619 cbfa b964 100a d314
	0x0290:  211b 0d35 2f80 33a4 e648 4803 7a9a ed8e
	0x02a0:  882b 90d0 0004 ee30 8204 ea30 8203 d2a0
	0x02b0:  0302 0102 0210 0a35 08d5 5c29 2b01 7df8
	0x02c0:  ad65 c00f f7e4 300d 0609 2a86 4886 f70d
	0x02d0:  0101 0b05 0030 6131 0b30 0906 0355 0406
	0x02e0:  1302 5553 3115 3013 0603 5504 0a13 0c44
	0x02f0:  6967 6943 6572 7420 496e 6331 1930 1706
	0x0300:  0355 040b 1310 7777 772e 6469 6769 6365
	0x0310:  7274 2e63 6f6d 3120 301e 0603 5504 0313
	0x0320:  1744 6967 6943 6572 7420 476c 6f62 616c
	0x0330:  2052 6f6f 7420 4341 301e 170d 3230 3039
	0x0340:  3234 3030 3030 3030 5a17 0d33 3030 3932
	0x0350:  3332 3335 3935 395a 304f 310b 3009 0603
	0x0360:  5504 0613 0255 5331 1530 1306 0355 040a
	0x0370:  130c 4469 6769 4365 7274 2049 6e63 3129
	0x0380:  3027 0603 5504 0313 2044 6967 6943 6572
	0x0390:  7420 544c 5320 5253 4120 5348 4132 3536
	0x03a0:  2032 3032 3020 4341 3130 8201 2230 0d06
	0x03b0:  092a 8648 86f7 0d01 0101 0500 0382 010f
	0x03c0:  0030 8201 0a02 8201 0100 c14b b365 4770
	0x03d0:  bcdd 4f58 dbec 9ced c366 e51f 3113 54ad
	0x03e0:  4a66 461f 2c0a ec64 07e5 2edc dcb9 0a20
	0x03f0:  eddf e3c4 d09e 9aa9 7a1d 8288 e511 56db
	0x0400:  1e9f 58c2 51e7 2c34 0d2e d292 e156 cbf1
	0x0410:  795f b3bb 87ca 2503 7b9a 5241 6610 604f
	0x0420:  5713 49f0 e837 6783 dfe7 d34b 674c 2251
	0x0430:  a6df 0e99 10ed 5751 7426 e27d c7ca 622e
	0x0440:  131b 7f23 8825 536f c134 5800 8b84 fff8
	0x0450:  bea7 5849 227b 96ad a288 9b15 bca0 7cdf
	0x0460:  e951 a8d5 b0ed 37e2 36b4 824b 62b5 499a
	0x0470:  ecc7 67d6 e33e f5e3 d612 5e44 f1bf 7142
	0x0480:  7d58 8403 80b1 8101 faf9 ca32 bbb4 8e27
	0x0490:  8727 c52b 74d4 a8d6 97de c364 f9ca ce53
	0x04a0:  a256 bc78 178e 4903 29ae fb49 4fa4 15b9
	0x04b0:  cef2 5c19 576d 6b79 a72b a227 2013 b5d0
	0x04c0:  3d40 d321 3007 93ea 99f5 0203 0100 01a3
	0x04d0:  8201 ae30 8201 aa30 1d06 0355 1d0e 0416
	0x04e0:  0414 b76b a2ea a8aa 848c 79ea b4da 0f98
	0x04f0:  b2c5 9576 b9f4 301f 0603 551d 2304 1830
	0x0500:  1680 1403 de50 3556 d14c bb66 f0a3 e21b
	0x0510:  1bc3 97b2 3dd1 5530 0e06 0355 1d0f 0101
	0x0520:  ff04 0403 0201 8630 1d06 0355 1d25 0416
	0x0530:  3014 0608 2b06 0105 0507 0301 0608 2b06
	0x0540:  0105 0507 0302 3012 0603 551d 1301 01ff
	0x0550:  0408 3006 0101 ff02 0100 3076 0608 2b06
	0x0560:  0105 0507 0101 046a 3068 3024 0608 2b06
	0x0570:  0105 0507 3001 8618 6874 7470 3a2f 2f6f
	0x0580:  6373 702e 6469 6769 6365 7274 2e63 6f6d
	0x0590:  3040 0608 2b06 0105 0507 3002 8634 6874
	0x05a0:  7470 3a2f 2f63 6163 6572 7473 2e64 6967
	0x05b0:  6963 6572 742e 636f 6d2f 4469 6769 4365
	0x05c0:  7274 476c 6f62 616c 526f 6f74 4341 2e63
	0x05d0:  7274 307b 0603 551d 1f04 7430 7230 37a0
	0x05e0:  35a0
03:54:53.466156 IP 192.168.0.101.57244 > ec2-44-238-55-159.us-west-2.compute.amazonaws.com.https: Flags [.], ack 2881, win 501, options [nop,nop,TS val 3650830558 ecr 650631821], length 0
	0x0000:  0840 f3b2 16f8 9c5a 4472 ec13 0800 4500
	0x0010:  0034 2a89 4000 4006 eaa0 c0a8 0065 2cee
	0x0020:  379f df9c 01bb ca00 05bf 020c 3e1e 8010
	0x0030:  01f5 25c1 0000 0101 080a d99b 40de 26c7
	0x0040:  da8d
03:54:53.466190 IP ec2-44-238-55-159.us-west-2.compute.amazonaws.com.https > 192.168.0.101.57244: Flags [P.], seq 2881:3663, ack 518, win 110, options [nop,nop,TS val 650631821 ecr 3650830348], length 782
	0x0000:  9c5a 4472 ec13 0840 f3b2 16f8 0800 4500
	0x0010:  0342 7386 4000 dc06 0295 2cee 379f c0a8
	0x0020:  0065 01bb df9c 020c 3e1e ca00 05bf 8018
	0x0030:  006e 2b9d 0000 0101 080a 26c7 da8d d99b
	0x0040:  400c 3386 3168 7474 703a 2f2f 6372 6c33
	0x0050:  2e64 6967 6963 6572 742e 636f 6d2f 4469
	0x0060:  6769 4365 7274 476c 6f62 616c 526f 6f74
	0x0070:  4341 2e63 726c 3037 a035 a033 8631 6874
	0x0080:  7470 3a2f 2f63 726c 342e 6469 6769 6365
	0x0090:  7274 2e63 6f6d 2f44 6967 6943 6572 7447
	0x00a0:  6c6f 6261 6c52 6f6f 7443 412e 6372 6c30
	0x00b0:  3006 0355 1d20 0429 3027 3007 0605 6781
	0x00c0:  0c01 0130 0806 0667 810c 0102 0130 0806
	0x00d0:  0667 810c 0102 0230 0806 0667 810c 0102
	0x00e0:  0330 0d06 092a 8648 86f7 0d01 010b 0500
	0x00f0:  0382 0101 0077 abb7 7a27 3dae bbf6 7fe0
	0x0100:  5a56 c984 aaca 5b71 17dd 2247 fc4e 9fee
	0x0110:  d0c1 a404 e1a3 ebc5 49c1 fdd1 c9df 8caf
	0x0120:  9445 2c46 2aa3 6339 20f9 9e4a 2494 41c8
	0x0130:  a9d9 e29c 5405 06cb 5c1c be00 1b0f a85a
	0x0140:  ff19 bb65 c716 af21 56dd 6105 c9e9 8f98
	0x0150:  76df 6b1b d072 0c50 b930 297a bf60 5910
	0x0160:  6613 3a2d ac15 116c 2d23 0c02 3e05 3bfe
	0x0170:  e5a1 9ce2 8adb 87d7 4ae8 5ee7 4806 ebab
	0x0180:  129a f2af 84c3 5b83 4a99 8183 ab00 a1ca
	0x0190:  0a3c 4ca2 2589 2a22 a7a4 f333 4c5b 8c2e
	0x01a0:  1a02 970f 9d8f 6d2d 9508 fb4f daf1 9138
	0x01b0:  25e1 9c6e 6118 876a ceb1 bb00 306a 9bb7
	0x01c0:  afda f1c5 97fe 8a78 24aa ea93 80ba 3365
	0x01d0:  7abc a177 e97f 6914 0b00 3f77 92b1 4d5b
	0x01e0:  7387 0a13 d09c c8f2 4b39 4f52 8449 a64c
	0x01f0:  904e 1ff7 b416 0303 014d 0c00 0149 0300
	0x0200:  1741 04c5 d1b5 bbc0 f42b d62e a850 b9c7
	0x0210:  6f5b b8ad 91fe 66b4 bb63 a466 c09a c5f9
	0x0220:  277e 9fef 68c4 224f abba b039 9d1d bb10
	0x0230:  ea91 a7c7 7e5f 3a66 bb08 c5b2 9ca0 e3db
	0x0240:  14c6 ef06 0101 0070 36ed 20c9 3ef4 003c
	0x0250:  1347 fc87 9284 b64d 12a7 8b01 bdb1 738a
	0x0260:  2f0d 2504 6cca 4e2f 37ff 65a0 08b0 4be8
	0x0270:  87c1 c6c4 8490 a9c2 32a5 1588 794a ca82
	0x0280:  69f7 b526 0f23 119c 3a49 348b a406 81e1
	0x0290:  5ab0 907a 4331 7362 4fd3 de9f 119e 8935
	0x02a0:  c469 f531 a908 06f8 9ca0 bace 1cd5 a40d
	0x02b0:  0a11 8950 fd98 cead 6dc3 8d02 fc4a 75a5
	0x02c0:  8c98 0e9c cf2a 8957 5aa3 231c 0b33 1402
	0x02d0:  6b6d 436b 8181 58c1 e051 38cf 42e3 26aa
	0x02e0:  bb60 3853 16dc b27e 7c61 f051 5abc b3a7
	0x02f0:  e1b1 c479 06f9 b25a 5f51 a73d 42fe 3f3a
	0x0300:  7483 7294 88dd 1389 afab 938d 75b2 ccac
	0x0310:  c835 2978 24b5 b060 bcc0 0053 a41b fc3d
	0x0320:  bebd d5a8 c34c 40f4 0e5f 406e 158b c7b7
	0x0330:  7174 d25b 1d35 97de c6a7 fdc1 877d 9543
	0x0340:  ed6a c2b3 546c 0616 0303 0004 0e00 0000
03:54:53.466194 IP 192.168.0.101.57244 > ec2-44-238-55-159.us-west-2.compute.amazonaws.com.https: Flags [.], ack 3663, win 498, options [nop,nop,TS val 3650830558 ecr 650631821], length 0
	0x0000:  0840 f3b2 16f8 9c5a 4472 ec13 0800 4500
	0x0010:  0034 2a8a 4000 4006 ea9f c0a8 0065 2cee
	0x0020:  379f df9c 01bb ca00 05bf 020c 412c 8010
	0x0030:  01f2 25c1 0000 0101 080a d99b 40de 26c7
	0x0040:  da8d
03:54:53.473449 IP 140.227.186.35.bc.googleusercontent.com.https > 192.168.0.101.39378: Flags [P.], seq 1553:1642, ack 2267, win 278, options [nop,nop,TS val 1218423451 ecr 1846755052], length 89
	0x0000:  9c5a 4472 ec13 0840 f3b2 16f8 0800 4560
	0x0010:  008d 21ef 0000 7806 57c8 23ba e38c c0a8
	0x0020:  0065 01bb 99d2 8189 30fc 40a3 e80e 8018
	0x0030:  0116 6211 0000 0101 080a 489f aa9b 6e13
	0x0040:  3eec 1703 0300 5430 f2c5 741c 05e9 f222
	0x0050:  2973 52db be06 9236 4717 150c 8963 88fc
	0x0060:  556b 9a41 e624 2401 4c28 8dab 40c9 1d8d
	0x0070:  c0c3 ea31 a08e 2aa3 a9e5 f736 7b12 77ac
	0x0080:  352b 5f5b 7519 3a7f cef1 5864 e75a 78ae
	0x0090:  ba78 73a2 e4df 3d07 e32d f1
03:54:53.473510 IP 140.227.186.35.bc.googleusercontent.com.https > 192.168.0.101.39378: Flags [P.], seq 1642:1867, ack 2267, win 278, options [nop,nop,TS val 1218423451 ecr 1846755052], length 225
	0x0000:  9c5a 4472 ec13 0840 f3b2 16f8 0800 4560
	0x0010:  0115 21f0 0000 7806 573f 23ba e38c c0a8
	0x0020:  0065 01bb 99d2 8189 3155 40a3 e80e 8018
	0x0030:  0116 daf3 0000 0101 080a 489f aa9b 6e13
	0x0040:  3eec 1703 0300 dce0 6642 0d36 d1d1 4653
	0x0050:  dcfc 6652 3319 92f4 0007 db16 40c1 2dc1
	0x0060:  0feb ce45 55ea 322c 02ec b06d 44ab 3c16
	0x0070:  b8d1 1766 f640 14b3 715e 23ce a2a5 2eb9
	0x0080:  fd64 a547 4cb9 c6c5 af83 f67d ceb2 186a
	0x0090:  78ac 720a 5e12 e84b 8bb2 312f 0d81 d26e
	0x00a0:  f7ec 7108 e4e9 8fc1 eece e07c f563 de7b
	0x00b0:  33d6 0e2f ade6 c233 c72d 865e 1bd7 5320
	0x00c0:  a4cb a102 0f7c 5a6d 18ff 0e03 84bf 47f7
	0x00d0:  e49f 2b60 f210 158a 7a0f b622 dd93 7c07
	0x00e0:  2789 b369 fd92 0115 4627 8cda a4db 9cc7
	0x00f0:  b34d e7cd 6706 ff68 acda 1e84 a995 0f5f
	0x0100:  3ed3 8ee7 bbb0 8245 5319 f970 6577 129c
	0x0110:  ff03 64bd ce35 5b2d ee5e e0c8 cd59 0f61
	0x0120:  ac95 99
03:54:53.473541 IP 140.227.186.35.bc.googleusercontent.com.https > 192.168.0.101.39378: Flags [P.], seq 1867:1898, ack 2267, win 278, options [nop,nop,TS val 1218423451 ecr 1846755052], length 31
	0x0000:  9c5a 4472 ec13 0840 f3b2 16f8 0800 4560
	0x0010:  0053 21f1 0000 7806 5800 23ba e38c c0a8
	0x0020:  0065 01bb 99d2 8189 3236 40a3 e80e 8018
	0x0030:  0116 7e5d 0000 0101 080a 489f aa9b 6e13
	0x0040:  3eec 1703 0300 1afb a054 1ab8 e10b 0d07
	0x0050:  2b09 ec3e 53fb 12cb ccbf f499 f65c 5db1
	0x0060:  a5
03:54:53.473565 IP 140.227.186.35.bc.googleusercontent.com.https > 192.168.0.101.39378: Flags [P.], seq 1898:1937, ack 2267, win 278, options [nop,nop,TS val 1218423452 ecr 1846755052], length 39
	0x0000:  9c5a 4472 ec13 0840 f3b2 16f8 0800 4580
	0x0010:  005b 21f2 0000 7806 57d7 23ba e38c c0a8
	0x0020:  0065 01bb 99d2 8189 3255 40a3 e80e 8018
	0x0030:  0116 b1e0 0000 0101 080a 489f aa9c 6e13
	0x0040:  3eec 1703 0300 22cd 46d2 9890 8e6b e602
	0x0050:  fc13 7145 1fcf 57c9 bf3a 1840 02df dfe8
	0x0060:  f507 986e da16 6385 e8
03:54:53.474230 IP 192.168.0.101.57244 > ec2-44-238-55-159.us-west-2.compute.amazonaws.com.https: Flags [P.], seq 518:644, ack 3663, win 501, options [nop,nop,TS val 3650830566 ecr 650631821], length 126
	0x0000:  0840 f3b2 16f8 9c5a 4472 ec13 0800 4500
	0x0010:  00b2 2a8b 4000 4006 ea20 c0a8 0065 2cee
	0x0020:  379f df9c 01bb ca00 05bf 020c 412c 8018
	0x0030:  01f5 263f 0000 0101 080a d99b 40e6 26c7
	0x0040:  da8d 1603 0300 4610 0000 4241 0455 73c3
	0x0050:  3958 1d0a 5676 b12a 6abc 636e 9820 0362
	0x0060:  5c83 bad9 55a8 1469 908c 897e 8ebc 309f
	0x0070:  cacb 4027 50de 0c52 fb26 f8be 7d46 18fa
	0x0080:  fe92 cc3b d8d8 4294 24a7 0a69 5314 0303
	0x0090:  0001 0116 0303 0028 0000 0000 0000 0000
	0x00a0:  f259 5c56 1bfc 5718 c11d ba1f 6425 4e21
	0x00b0:  31bb 4ef6 892d 3632 2346 2786 a0bc 0edd
03:54:53.475093 IP 192.168.0.101.57244 > ec2-44-238-55-159.us-west-2.compute.amazonaws.com.https: Flags [P.], seq 644:1921, ack 3663, win 501, options [nop,nop,TS val 3650830567 ecr 650631821], length 1277
	0x0000:  0840 f3b2 16f8 9c5a 4472 ec13 0800 4500
	0x0010:  0531 2a8c 4000 4006 e5a0 c0a8 0065 2cee
	0x0020:  379f df9c 01bb ca00 063d 020c 412c 8018
	0x0030:  01f5 2abe 0000 0101 080a d99b 40e7 26c7
	0x0040:  da8d 1703 0304 f800 0000 0000 0000 0105
	0x0050:  a7ec eae1 fc89 4dec 5a03 4aec acc8 5955
	0x0060:  4782 9619 dbe5 167d bc63 bc05 c609 720a
	0x0070:  b1a6 e7e1 3c13 99e0 e9c4 9100 55b0 f64d
	0x0080:  3cba adc0 8910 94f2 a7c7 2b01 c29f 9538
	0x0090:  dd7e 6329 e607 3a76 c9bb 4b96 d60d 44ac
	0x00a0:  5193 484a acac 5a89 4af6 b1c5 1b59 4380
	0x00b0:  e74a afd7 8ef9 e0a0 751f ad44 1107 a338
	0x00c0:  6051 1c7b 2ce0 7de3 d90a 0f73 1b23 d20b
	0x00d0:  d9a3 8f29 688f 52db 3bdb 4d21 6a38 eac2
	0x00e0:  4c9a 9fe1 a2c5 601d b976 5dbf 940f ebd2
	0x00f0:  833e f1a1 0b85 59e4 b589 1e55 c19a 5ed3
	0x0100:  5c31 e9ef c53c 90c9 eee5 1d9b a8f3 0cd2
	0x0110:  55c3 6b60 7629 06ab 2f7d 28b4 fd09 b931
	0x0120:  bc1e 5bda ce83 0197 1566 e3a9 e2d2 865b
	0x0130:  dce3 3784 83f4 3fad 34df 0fea 73a6 ab8f
	0x0140:  3cef 1af4 760e 98ba f957 b8bb b343 693f
	0x0150:  06de e237 c377 e4c4 db12 bbcc 917e 937c
	0x0160:  114e 95e5 3b64 7229 0ee3 0736 5119 262f
	0x0170:  e081 eaf0 546f 575e 02ed 942b faa1 66ee
	0x0180:  e7a3 9dcb f111 e2c7 1ba5 d9ce cd9f 2622
	0x0190:  cbfe 658c 54d8 6cdc a406 de68 7a38 3662
	0x01a0:  6ad0 23ef c32b a151 7491 4d92 e9b7 bed8
	0x01b0:  d174 3f41 6e99 a873 28ee 93f2 0986 7ac6
	0x01c0:  01a2 3efd 9863 c13c a6a6 8079 884a a9c3
	0x01d0:  4582 9349 f383 9dbc b9db 4bf1 82b1 f594
	0x01e0:  d88d 6047 554f c204 f1d9 afa5 4bfd 53ef
	0x01f0:  6ed6 06bb 0cab 041b 6d12 577d e2d9 2775
	0x0200:  d21e 1105 745a d731 0304 3395 d604 59fe
	0x0210:  54f9 0b30 970c 4c26 4592 62e7 5f97 22a3
	0x0220:  8406 6d1d 73a4 a454 2013 b712 b4f1 7424
	0x0230:  0e4a b735 b609 339d 0a71 1986 5ccd 9d53
	0x0240:  3a5a 32b5 221a 5198 2b44 b317 68ee b6ad
	0x0250:  0fa6 2ef0 014d d674 023b 1ce8 e1db 8613
	0x0260:  02b9 1851 4423 c66e d4be 1586 5768 982f
	0x0270:  1b00 7812 d1f4 6760 788c f47d f19a d61c
	0x0280:  0846 0f91 8e5b 8399 2553 9750 6c63 6c00
	0x0290:  2d29 9893 a694 8add 4062 80aa 0706 c452
	0x02a0:  80d0 0b9f 662f 7d36 013f 0530 9fb5 b8ba
	0x02b0:  639e 6b1d 4c3b d3a6 08c1 9ac7 60ca 7fdb
	0x02c0:  2e3a 7764 b916 d701 81c6 65a6 b1dc 652d
	0x02d0:  e9c2 072b 189b a70d 6d9c 0653 0eff 2908
	0x02e0:  23cf 6c31 e40c 4d14 e330 7956 196a da4b
	0x02f0:  9fc9 f82c c346 0804 369a 0149 96df a4ec
	0x0300:  8366 6abc c333 b239 8a29 6980 09f8 e35f
	0x0310:  b190 8824 36ae 9cac 3922 6ec6 578c 2c0c
	0x0320:  e34c 5e5f 6cf4 cb2b 4e89 acb9 9170 412f
	0x0330:  7945 9797 6398 6569 15bd 70d3 1c8c 0976
	0x0340:  333e 5b74 1527 1fca 991e e13d ee5e 5ccc
	0x0350:  03b6 420a ad1d 082f 9821 84e4 6d77 ccc9
	0x0360:  977d cff5 11a3 08af 0991 e3d5 6555 eb9b
	0x0370:  bc87 de8c 2924 9e59 af2d 4c7d e059 6fbb
	0x0380:  1cb1 1185 205a 5234 6b8f cc6a 4d70 5c2e
	0x0390:  5d15 1cff eeee a307 5dd9 bbd4 c2fe 31f2
	0x03a0:  af76 146e d0f5 9544 0356 9cdc 9f72 6ff9
	0x03b0:  d52e 7e6b 71a4 7531 d125 e710 ef69 fc8e
	0x03c0:  8440 2b74 e79b cb44 e227 7591 75e9 6a27
	0x03d0:  b99e 9df8 58ff 2009 457b 958c aa34 4e85
	0x03e0:  c904 ddaf 18a9 c82d f3f8 d121 d1c0 9455
	0x03f0:  c753 a599 9c96 2c7c 71cd d37f 26ba 3f3f
	0x0400:  a344 3153 bb56 75bf 34e8 9bdd 3d7f 9df9
	0x0410:  92e2 f0da 4a48 684d 2a90 5a8d 8a2b 58f8
	0x0420:  f206 14a9 7e93 81b0 97e1 6469 c86a 5b74
	0x0430:  1196 acba cd50 a41f e1d4 bfeb 2eb4 5a85
	0x0440:  5f46 ac15 d37b 4eb6 44be 4a76 0e37 76a7
	0x0450:  29e5 6515 c8ac 1192 075a 0588 e8e1 150f
	0x0460:  04e8 b797 b90f 2e05 6921 7009 4935 d527
	0x0470:  5b88 d990 661c 6414 9bde 1224 71bb 941b
	0x0480:  01b3 3c84 724f e32b c0ac c526 eda2 0e44
	0x0490:  56ef 23ee e189 86ae c016 74c7 f7e5 9266
	0x04a0:  e1c5 0abf c5f7 bbac f0a0 b232 d3c5 8920
	0x04b0:  1e44 0fdc c666 11f9 7efb a593 d1c3 dc9a
	0x04c0:  b364 f73c 41e1 6cc7 b8a9 5e26 7b3f b41b
	0x04d0:  6ba3 1429 7334 c314 0aaa 6d23 1b64 711b
	0x04e0:  edd8 630e cd8e 1c6e d2c3 770b aef2 b047
	0x04f0:  74fc 0f79 3ddc b50e d48e b19e cc29 910d
	0x0500:  0ad9 564f 399d 79fa b760 a9e2 5dbd 4a91
	0x0510:  de7d 1f41 936d 1cec 4540 04e5 ca90 e120
	0x0520:  00ba 0bed 106e 03cb e317 6918 76ed a48b
	0x0530:  50fa dd7b 1cfa a232 e1fb a35a c246 51
03:54:53.475153 IP 192.168.0.101.39378 > 140.227.186.35.bc.googleusercontent.com.https: Flags [.], ack 1937, win 501, options [nop,nop,TS val 1846755225 ecr 1218423451], length 0
	0x0000:  0840 f3b2 16f8 9c5a 4472 ec13 0800 4500
	0x0010:  0034 2382 4000 4006 4eee c0a8 0065 23ba
	0x0020:  e38c 99d2 01bb 40a3 e80e 8189 327c 8010
	0x0030:  01f5 c87a 0000 0101 080a 6e13 3f99 489f
	0x0040:  aa9b
03:54:53.475177 IP 192.168.0.101.39378 > 140.227.186.35.bc.googleusercontent.com.https: Flags [P.], seq 2267:2306, ack 1937, win 501, options [nop,nop,TS val 1846755225 ecr 1218423451], length 39
	0x0000:  0840 f3b2 16f8 9c5a 4472 ec13 0800 4500
	0x0010:  005b 2383 4000 4006 4ec6 c0a8 0065 23ba
	0x0020:  e38c 99d2 01bb 40a3 e80e 8189 327c 8018
	0x0030:  01f5 c8a1 0000 0101 080a 6e13 3f99 489f
	0x0040:  aa9b 1703 0300 22dd a3a7 9a1c 6685 44cc
	0x0050:  ea89 c69f c8bf 7b00 42eb 131b fe42 9417
	0x0060:  88a5 9b54 2ef4 597e 34
03:54:53.484955 IP 192.168.0.101.39378 > 140.227.186.35.bc.googleusercontent.com.https: Flags [P.], seq 2306:2882, ack 1937, win 501, options [nop,nop,TS val 1846755235 ecr 1218423451], length 576
	0x0000:  0840 f3b2 16f8 9c5a 4472 ec13 0800 4500
	0x0010:  0274 2384 4000 4006 4cac c0a8 0065 23ba
	0x0020:  e38c 99d2 01bb 40a3 e835 8189 327c 8018
	0x0030:  01f5 caba 0000 0101 080a 6e13 3fa3 489f
	0x0040:  aa9b 1703 0302 3b34 cd26 e3cf fe8f c913
	0x0050:  e4d2 eb16 b684 619d 5cb6 e940 e0e3 1060
	0x0060:  244e 3673 b25d 9778 5b91 265f d2c0 e32f
	0x0070:  6d4f ae5f ef80 7983 754e 511a 7c6a b7e0
	0x0080:  023a e8e7 d052 d3fd d238 8d67 f65e fb9d
	0x0090:  313c 0f55 d4df 42a2 5fa6 b3d6 7975 37bc
	0x00a0:  22e7 b52c 1f1f 2ab8 42b7 ca97 624a 176f
	0x00b0:  cd54 c7c3 e1f8 de34 618f 8fe7 97ec 8a98
	0x00c0:  4915 c3a6 cc71 6db2 64b8 0543 1dee d6fb
	0x00d0:  3f89 4729 75ee 97ef abbb a7eb 7321 fc59
	0x00e0:  2258 7af6 e2ab fc0a acf5 c3fb 5bfb bc7f
	0x00f0:  4a0c 12a0 7574 5af4 9818 3c90 ef66 5bda
	0x0100:  9519 e706 e8af 4972 5dec 5a9a ba93 9535
	0x0110:  d2f5 bc65 55c5 4b12 baab ea21 24e1 5cc5
	0x0120:  c9ef e9e2 627c 1ff2 d944 3215 27e4 3eac
	0x0130:  20b9 2e17 7593 121a 434b 554d 00a5 2da3
	0x0140:  d82f 3d3a d494 573c d2aa 3340 7392 5777
	0x0150:  1287 d49a a793 b5b8 acba 7f10 1006 b681
	0x0160:  6d78 7f44 1d90 3df6 6ae5 d60f 2e1a 369d
	0x0170:  6650 fe02 0043 90d9 2fbe b342 aacb 5a58
	0x0180:  bacc 744f d8de a05c 9f9c a646 f8f4 b7e8
	0x0190:  1cd8 5dcd 4806 837f 5c33 1ddf 73e6 f942
	0x01a0:  9308 30d0 59fc 98c7 a6e7 24fa fdea 37de
	0x01b0:  40ce 20f7 8ca1 d3d8 2688 dd2e f67d 7295
	0x01c0:  37c2 8586 1494 b20e fc3c 8648 5000 e9f0
	0x01d0:  17d7 9740 f523 66f9 5a2c 8a83 2a7e dc73
	0x01e0:  a540 c383 1cae 708d 7f8d b127 63cc 1aa3
	0x01f0:  2478 5bee f1c7 5e9d ba7c feda 9b21 da37
	0x0200:  4e7c 73d1 4a93 442c 09a0 b9ab f5c7 1cd1
	0x0210:  f39b 53c4 12f7 ea2b 3650 3652 b7c6 7645
	0x0220:  c220 63a1 7cdc 44d7 6ab5 6165 7657 5087
	0x0230:  666a 9918 9db6 1159 704c a6b3 f23b 85b2
	0x0240:  73be a15b 4060 ba64 3646 63a6 4d6b 5f9b
	0x0250:  0235 978c 255b 4cd3 07e6 7290 9352 e9b5
	0x0260:  ad59 73be 476d 02a8 5a41 7e50 8b62 ec19
	0x0270:  2820 a45b c28a 31d6 20ef ee32 5ff7 10c3
	0x0280:  a317
03:54:53.490117 IP 140.227.186.35.bc.googleusercontent.com.https > 192.168.0.101.39378: Flags [.], ack 2306, win 278, options [nop,nop,TS val 1218423468 ecr 1846755225], length 0
	0x0000:  9c5a 4472 ec13 0840 f3b2 16f8 0800 4580
	0x0010:  0034 2202 0000 7806 57ee 23ba e38c c0a8
	0x0020:  0065 01bb 99d2 8189 327c 40a3 e835 8010
	0x0030:  0116 93ee 0000 0101 080a 489f aaac 6e13
	0x0040:  3f99
03:54:53.500163 IP 140.227.186.35.bc.googleusercontent.com.https > 192.168.0.101.39378: Flags [.], ack 2882, win 284, options [nop,nop,TS val 1218423478 ecr 1846755235], length 0
	0x0000:  9c5a 4472 ec13 0840 f3b2 16f8 0800 4580
	0x0010:  0034 2205 0000 7806 57eb 23ba e38c c0a8
	0x0020:  0065 01bb 99d2 8189 327c 40a3 ea75 8010
	0x0030:  011c 9194 0000 0101 080a 489f aab6 6e13
	0x0040:  3fa3
03:54:53.610044 IP 192.168.0.101.46502 > 192.168.0.1.domain: 22655+ PTR? 140.227.186.35.in-addr.arpa. (45)
	0x0000:  0840 f3b2 16f8 9c5a 4472 ec13 0800 4500
	0x0010:  0049 674d 4000 4011 51a0 c0a8 0065 c0a8
	0x0020:  0001 b5a6 0035 0035 81fd 587f 0100 0001
	0x0030:  0000 0000 0000 0331 3430 0332 3237 0331
	0x0040:  3836 0233 3507 696e 2d61 6464 7204 6172
	0x0050:  7061 0000 0c00 01
03:54:53.683109 IP ec2-44-238-55-159.us-west-2.compute.amazonaws.com.https > 192.168.0.101.57244: Flags [P.], seq 3663:3714, ack 644, win 110, options [nop,nop,TS val 650632039 ecr 3650830566], length 51
	0x0000:  9c5a 4472 ec13 0840 f3b2 16f8 0800 4500
	0x0010:  0067 7387 4000 dc06 056f 2cee 379f c0a8
	0x0020:  0065 01bb df9c 020c 412c ca00 063d 8018
	0x0030:  006e 1f61 0000 0101 080a 26c7 db67 d99b
	0x0040:  40e6 1403 0300 0101 1603 0300 2826 5ee6
	0x0050:  dc03 af68 5105 e2a8 8ed2 cb38 a505 4bb1
	0x0060:  8512 5425 8972 a68f 97ca 22ba 5d2e f8bf
	0x0070:  6c49 5cb2 7b
03:54:53.683184 IP 192.168.0.101.57244 > ec2-44-238-55-159.us-west-2.compute.amazonaws.com.https: Flags [.], ack 3714, win 501, options [nop,nop,TS val 3650830775 ecr 650632039], length 0
	0x0000:  0840 f3b2 16f8 9c5a 4472 ec13 0800 4500
	0x0010:  0034 2a8d 4000 4006 ea9c c0a8 0065 2cee
	0x0020:  379f df9c 01bb ca00 0b3a 020c 415f 8010
	0x0030:  01f5 25c1 0000 0101 080a d99b 41b7 26c7
	0x0040:  db67
03:54:53.685992 IP 140.227.186.35.bc.googleusercontent.com.https > 192.168.0.101.39378: Flags [P.], seq 1937:2050, ack 2882, win 284, options [nop,nop,TS val 1218423664 ecr 1846755235], length 113
	0x0000:  9c5a 4472 ec13 0840 f3b2 16f8 0800 4500
	0x0010:  00a5 22b9 0000 7706 5846 23ba e38c c0a8
	0x0020:  0065 01bb 99d2 8189 327c 40a3 ea75 8018
	0x0030:  011c 40f1 0000 0101 080a 489f ab70 6e13
	0x0040:  3fa3 1703 0300 6c61 529a 0ffb 1ed5 9d8b
	0x0050:  24ef 19fc 48de c48d 5a74 c08f 2330 8d0a
	0x0060:  e551 9cc0 fc98 d32a 7b6b 95ac 0586 0630
	0x0070:  1242 63f9 af0f 5320 61f8 7d20 f8ce 00f8
	0x0080:  9efa 2ea7 6fcd 2479 dc3b 4260 42a9 622d
	0x0090:  fdf6 8d80 84f9 4a27 465d 3951 57b2 7b9e
	0x00a0:  57c0 2901 934d 546e 23b6 d40b 8676 b7e2
	0x00b0:  b203 af
03:54:53.686105 IP 140.227.186.35.bc.googleusercontent.com.https > 192.168.0.101.39378: Flags [P.], seq 2050:3468, ack 2882, win 284, options [nop,nop,TS val 1218423664 ecr 1846755235], length 1418
	0x0000:  9c5a 4472 ec13 0840 f3b2 16f8 0800 4500
	0x0010:  05be 22ba 0000 7706 532c 23ba e38c c0a8
	0x0020:  0065 01bb 99d2 8189 32ed 40a3 ea75 8018
	0x0030:  011c 1e00 0000 0101 080a 489f ab70 6e13
	0x0040:  3fa3 1703 0305 8531 ab69 3f38 743f 8838
	0x0050:  3489 058c 40e7 877d daa0 1ebe e413 6139
	0x0060:  7ce2 1ab5 9915 43eb c2ad c83d 00b0 4566
	0x0070:  b22e 54ad 5457 29ae e556 7a44 00ea 71d5
	0x0080:  6365 7e07 11ec 237c 081e 9198 7815 305c
	0x0090:  c10a d240 e080 e2e8 7edf d77d 1393 c10f
	0x00a0:  1d65 8b6f a63b bd69 9440 8acf 9bba c03e
	0x00b0:  d523 3683 841a 6ca4 0851 6a15 c50a 49a7
	0x00c0:  e772 b2bd d893 1fbc c2cb eaa2 0590 c3f8
	0x00d0:  61fe d0d5 167b b828 b46d 7a53 0b9d 8542
	0x00e0:  3a2e 93b4 618a 3f8e 2391 df7e bc1d 3534
	0x00f0:  bcbb cf97 9f10 3373 6b11 1524 c32f 8f90
	0x0100:  5563 f5f1 14db 74d6 8a72 9dd0 8efe 0b3f
	0x0110:  732b c0e5 cdb8 66c7 1315 c516 d525 1fa0
	0x0120:  4947 e960 0c73 09c3 cf71 2927 ff48 e196
	0x0130:  c755 3853 bab6 4b66 b196 9727 40e3 dbd1
	0x0140:  4e2d 0250 3e71 20df 2b27 0f77 f1d3 e5e3
	0x0150:  f1bc 107d cfbd 44c1 416b e714 4199 4a60
	0x0160:  c7a7 63e1 ae87 244e 3610 7031 0130 7316
	0x0170:  6bf4 4c47 bd0f 3dee 3cd3 f805 ae65 1485
	0x0180:  d5d8 a11d 8f39 d47b 9a4c 11f3 5735 f5ca
	0x0190:  cfc0 9dda 298f c09e 649b 85e5 9587 3ea7
	0x01a0:  a635 e829 b710 aeea 2255 f743 69b3 f6f8
	0x01b0:  baa6 9f39 7c96 a4a6 d8fa 03a6 8465 b27b
	0x01c0:  38e5 c38b 2512 f395 b387 552d 9473 deb9
	0x01d0:  4ed5 29e3 b1a8 7e4a fabb a500 2dad 23fa
	0x01e0:  e7d7 1f15 675c ba05 6549 04b2 0b4f 941a
	0x01f0:  6373 001d 3e9b 80fe 972b 26b0 c612 056e
	0x0200:  e322 c47a 653d 73b0 c84a 5726 1303 5ae1
	0x0210:  4dc7 60ea 1cb9 48e4 57cc f767 6b33 8634
	0x0220:  0794 bb30 2e59 846c c55f 1676 16af 1cd2
	0x0230:  b142 d10b fd31 3bb7 7700 51a9 02d6 063c
	0x0240:  d995 12a5 02a2 69f5 1ecb e773 ff78 24ce
	0x0250:  33d5 451e ea26 9807 4095 9a6b b579 5bde
	0x0260:  dc5c 6df9 f28e e6da aba4 988f 9b86 f28c
	0x0270:  315f 3792 61f1 b14c ea9c 4e31 b3e6 ed28
	0x0280:  f99e 0726 e3d2 570d 4cb0 0595 1bfb d0e0
	0x0290:  3195 8856 d643 b7fd afbc a7b3 5a31 b422
	0x02a0:  2bc5 90a6 1625 2629 9e47 ce0a da67 451e
	0x02b0:  c245 b1f3 db94 bf0e dee3 9ca2 17d6 9df5
	0x02c0:  82ce 7569 819c 5e58 f638 c3b2 c6b3 a217
	0x02d0:  b56b 8601 a55e c130 7feb 73e4 aa6e d3c0
	0x02e0:  192f 2e25 fefd d4f6 9ffa 2017 1737 690d
	0x02f0:  f3ef 1d19 519c 3ff2 bc78 8b89 9b89 99ab
	0x0300:  a62d c876 c56a bdd2 bc25 2b0a bc33 6b10
	0x0310:  426c 9ef4 5c16 495e 6a62 93e5 a852 4514
	0x0320:  ef91 2c9a 397d 404d b1fd 1d52 6f5e 26bb
	0x0330:  db84 1dca 1579 db28 08f5 43b8 22f3 9b05
	0x0340:  725c 94cf 1943 3e3b c46e a605 cb05 3fc1
	0x0350:  bb89 4778 b8e8 14e8 9c16 3e7d 2a4c d8a5
	0x0360:  b3cc 97e8 a702 c0fa 2071 99b2 9b48 e02f
	0x0370:  4020 f0ad 31dd 33d4 0ee2 93f4 1efb 9da1
	0x0380:  7a56 fc5c 4163 0369 d41c 89a4 50ab 1534
	0x0390:  2670 4509 79aa a7e2 ad5c d906 fe18 a588
	0x03a0:  b297 8c6a ec77 f2f4 e5fd e751 aba6 a898
	0x03b0:  3ea6 12ba 8166 d662 03f4 f7b1 f5cc a535
	0x03c0:  b712 fa44 ca3c 8c0d 6ed7 281e b6d9 1b43
	0x03d0:  3fe3 80f1 f082 4623 4704 ab0a e982 639b
	0x03e0:  7112 3994 ebe3 2ac4 b1c4 49ca a9f1 c021
	0x03f0:  d435 02fa 4818 d2ae e478 20bc 5950 54ff
	0x0400:  0484 3594 71ae ccec 4365 3fab 72b7 878b
	0x0410:  1895 8b4d f9ef 6ca2 629a 3d27 dba8 5ff1
	0x0420:  1c1c 22e8 efb5 df81 d5a9 c169 edd6 78b2
	0x0430:  c1c7 089c c64d b1fc a7b5 4d84 71ec fb52
	0x0440:  e24f b159 11e5 4219 ca8b 0847 897c 3693
	0x0450:  a860 9519 d1d8 b5db e6cb ea43 5c4f b1fa
	0x0460:  5c1c f2c1 bd91 b57b db99 7b3b 4619 b65a
	0x0470:  3665 5e9f 762b dfcb 7d94 6f80 96d0 f9ca
	0x0480:  0b57 5dfe 8150 e796 b1c9 7fdc 3b38 4b38
	0x0490:  035c 0b0d 0264 0f9c 90a2 9c04 85df 6e9a
	0x04a0:  c0ba 9d45 00a9 12fa 6c29 b511 d5f3 6695
	0x04b0:  cab6 9551 124d 9831 e344 ed43 ae92 f303
	0x04c0:  3cfb 664b 36b3 c075 c644 257d e68f fa0b
	0x04d0:  5d22 0be6 2abd 8fa9 8c63 dcf1 7a85 9546
	0x04e0:  30cf 5eb2 c57c 37f1 9fb1 3abe 0a81 4994
	0x04f0:  4e9b 47d5 fb1a 2362 200d 2467 3d78 85e5
	0x0500:  62d3 3988 66bb b2f4 1cbc a3ec a01e 7572
	0x0510:  39fc bc1a 11ec 7f36 01bf 8331 924f cbec
	0x0520:  2679 f290 e909 1578 21fa 12cf 3aa3 1f2d
	0x0530:  ab2a 236a e1dc a111 9529 7479 7644 750d
	0x0540:  21d0 3280 3da6 fd44 c5d9 042b 6c99 32df
	0x0550:  d829 b6bd 4f48 b09c 3743 d618 42c2 5fc6
	0x0560:  47bd 1aa0 9d54 1b7d 5a07 06dc 102a fe07
	0x0570:  6c9f 3355 d3e5 a3fd 6097 787e 917d 7568
	0x0580:  ca62 4d09 857f 1f04 7e9f 961a 9c9c ad3b
	0x0590:  d085 c480 bc9d 9597 1306 2b4c e84d 6adf
	0x05a0:  3e7b 5e6c 3aa1 4d75 0913 741a 566a f083
	0x05b0:  618b 2fa0 523c d9ab 3ddd 91b1 4ba0 af7b
	0x05c0:  d518 7fb9 8b70 64ba 2bd1 cbed
03:54:53.686141 IP 192.168.0.101.39378 > 140.227.186.35.bc.googleusercontent.com.https: Flags [.], ack 3468, win 499, options [nop,nop,TS val 1846755436 ecr 1218423664], length 0
	0x0000:  0840 f3b2 16f8 9c5a 4472 ec13 0800 4500
	0x0010:  0034 2385 4000 4006 4eeb c0a8 0065 23ba
	0x0020:  e38c 99d2 01bb 40a3 ea75 8189 3877 8010
	0x0030:  01f3 c87a 0000 0101 080a 6e13 406c 489f
	0x0040:  ab70
03:54:53.686258 IP 140.227.186.35.bc.googleusercontent.com.https > 192.168.0.101.39378: Flags [P.], seq 3468:4082, ack 2882, win 284, options [nop,nop,TS val 1218423664 ecr 1846755235], length 614
	0x0000:  9c5a 4472 ec13 0840 f3b2 16f8 0800 4500
	0x0010:  029a 22bb 0000 7706 564f 23ba e38c c0a8
	0x0020:  0065 01bb 99d2 8189 3877 40a3 ea75 8018
	0x0030:  011c 8dd5 0000 0101 080a 489f ab70 6e13
	0x0040:  3fa3 1703 0301 5505 7b22 33d7 4982 19f9
	0x0050:  1126 084e 1a4a 6e5b 207f 0bd7 8583 6ea2
	0x0060:  17bc a8b9 e83c aa6b 287a 0ef6 754e 4d00
	0x0070:  afb3 eae8 ec56 22cf 49f2 8f0c 18d2 2d96
	0x0080:  3fd0 5e71 2ae2 ad5b ae42 e571 3f27 1f7b
	0x0090:  0319 79b9 383a 8a71 b41b b254 391a e431
	0x00a0:  c567 790c dd3b 5c33 2492 e034 f786 673a
	0x00b0:  a32d 0526 dd07 87db 63d9 0142 f114 9bae
	0x00c0:  35ee 0210 5278 e07e 1205 c36a 55b6 672e
	0x00d0:  71d2 4444 765c 28cf 3d22 4a75 9480 341f
	0x00e0:  ae51 0f3c 55f7 ca9f 8117 9d23 12f4 d6b4
	0x00f0:  8c8f 5b9f c788 2c94 4c99 0bc9 a795 4aea
	0x0100:  2d60 c999 d81d c786 e132 5968 6f70 5a78
	0x0110:  9fd6 7849 70b3 9252 b9a7 1ace 04d6 82f8
	0x0120:  a062 2908 96af 3ceb 9152 62a4 7167 ce37
	0x0130:  1eaa c4e4 39a2 8ba9 9768 f2bf e2d9 79cd
	0x0140:  6aef 3a07 2f19 7255 89c2 f4cb e412 b4e8
	0x0150:  6794 c8f7 8012 de81 a154 d8bb e357 f48d
	0x0160:  f5e4 bfce a56e 5313 7aba 618e 0e53 e07b
	0x0170:  1986 2f92 5d1c 4d63 6bb0 ac52 994a 5e6a
	0x0180:  6930 561f 4dc6 6ca3 251e 0bbe 8416 b9a4
	0x0190:  f5d3 dd77 4c09 3ff8 cf72 be1d 1703 0301
	0x01a0:  074e 5382 c0b2 208c 9784 c948 1e3f 56bf
	0x01b0:  04bb 1daa 4063 fd2e fd47 c94e c0c9 400e
	0x01c0:  c9dc a871 8b3d 5109 a93b f3cd a10f 61f8
	0x01d0:  95d6 c57e 8c62 e181 d02f 1847 5525 e098
	0x01e0:  c3f3 82f8 670a a88d de64 a879 60c2 a020
	0x01f0:  7d74 9eb5 9348 907e dace 8e10 c587 17c4
	0x0200:  08f0 2313 c5e6 a90d 14dc 372a 6828 6212
	0x0210:  be65 707a d9c8 d8d2 cc4f 7156 3e3c dc68
	0x0220:  84e7 6ad7 eb15 397f c900 2841 be87 229c
	0x0230:  d2a4 67ea 7f89 9b28 2b2d fd42 bf22 d78f
	0x0240:  023f 1a7e 8208 339b e10f f131 8127 0070
	0x0250:  08c1 7fcb 0513 9e67 b182 9b2c f452 f902
	0x0260:  7893 5a20 632d a1cb 5a54 75ca b3ea 83a1
	0x0270:  995a 3a6a 4a63 420c f719 699f 532c 8cd5
	0x0280:  1711 788c bc2c f7f9 6df2 0a11 d966 d952
	0x0290:  eb13 6ded 6f55 276b 8f4d d81e 9d58 2f89
	0x02a0:  7a52 2e06 865b a49d
03:54:53.686391 IP 140.227.186.35.bc.googleusercontent.com.https > 192.168.0.101.39378: Flags [P.], seq 4082:4121, ack 2882, win 284, options [nop,nop,TS val 1218423665 ecr 1846755235], length 39
	0x0000:  9c5a 4472 ec13 0840 f3b2 16f8 0800 4500
	0x0010:  005b 22bc 0000 7706 588d 23ba e38c c0a8
	0x0020:  0065 01bb 99d2 8189 3add 40a3 ea75 8018
	0x0030:  011c a0c4 0000 0101 080a 489f ab71 6e13
	0x0040:  3fa3 1703 0300 22d4 c3e7 57a9 f4fc 15f7
	0x0050:  e4cb 33c3 c636 3849 56c5 0349 1f28 2fed
	0x0060:  8d97 2e3e a090 c38e a4
03:54:53.686524 IP 192.168.0.101.39378 > 140.227.186.35.bc.googleusercontent.com.https: Flags [.], ack 4121, win 501, options [nop,nop,TS val 1846755437 ecr 1218423664], length 0
	0x0000:  0840 f3b2 16f8 9c5a 4472 ec13 0800 4500
	0x0010:  0034 2386 4000 4006 4eea c0a8 0065 23ba
	0x0020:  e38c 99d2 01bb 40a3 ea75 8189 3b04 8010
	0x0030:  01f5 c87a 0000 0101 080a 6e13 406d 489f
	0x0040:  ab70
03:54:53.686563 IP 192.168.0.101.39378 > 140.227.186.35.bc.googleusercontent.com.https: Flags [P.], seq 2882:2921, ack 4121, win 501, options [nop,nop,TS val 1846755437 ecr 1218423664], length 39
	0x0000:  0840 f3b2 16f8 9c5a 4472 ec13 0800 4500
	0x0010:  005b 2387 4000 4006 4ec2 c0a8 0065 23ba
	0x0020:  e38c 99d2 01bb 40a3 ea75 8189 3b04 8018
	0x0030:  01f5 c8a1 0000 0101 080a 6e13 406d 489f
	0x0040:  ab70 1703 0300 223e bd21 e749 9461 0005
	0x0050:  bf5f b783 3ac3 2eac e699 e2c6 5408 bf5c
	0x0060:  5004 81b5 98f4 9f14 42
03:54:53.700881 IP 140.227.186.35.bc.googleusercontent.com.https > 192.168.0.101.39378: Flags [.], ack 2921, win 284, options [nop,nop,TS val 1218423679 ecr 1846755437], length 0
	0x0000:  9c5a 4472 ec13 0840 f3b2 16f8 0800 4500
	0x0010:  0034 22c0 0000 7706 58b0 23ba e38c c0a8
	0x0020:  0065 01bb 99d2 8189 3b04 40a3 ea9c 8010
	0x0030:  011c 8752 0000 0101 080a 489f ab7f 6e13
	0x0040:  406d
03:54:53.725708 IP ec2-44-238-55-159.us-west-2.compute.amazonaws.com.https > 192.168.0.101.57244: Flags [.], ack 1921, win 120, options [nop,nop,TS val 650632082 ecr 3650830567], length 0
	0x0000:  9c5a 4472 ec13 0840 f3b2 16f8 0800 4500
	0x0010:  0034 7388 4000 dc06 05a1 2cee 379f c0a8
	0x0020:  0065 01bb df9c 020c 415f ca00 0b3a 8010
	0x0030:  0078 39d0 0000 0101 080a 26c7 db92 d99b
	0x0040:  40e7
03:54:53.736201 IP 192.168.0.101.39378 > 140.227.186.35.bc.googleusercontent.com.https: Flags [P.], seq 2921:3554, ack 4121, win 501, options [nop,nop,TS val 1846755486 ecr 1218423679], length 633
	0x0000:  0840 f3b2 16f8 9c5a 4472 ec13 0800 4500
	0x0010:  02ad 2388 4000 4006 4c6f c0a8 0065 23ba
	0x0020:  e38c 99d2 01bb 40a3 ea9c 8189 3b04 8018
	0x0030:  01f5 caf3 0000 0101 080a 6e13 409e 489f
	0x0040:  ab7f 1703 0302 745d 000d 1e52 ec74 4d5a
	0x0050:  d12a 8929 7e1a a207 f836 9bb2 f9f9 82fb
	0x0060:  dadf 5f37 f5c4 fe93 9397 b33c 6ced 6e30
	0x0070:  c59f c394 19a4 fb33 14dc fb9c 254a 4b7b
	0x0080:  2bf7 a049 09e8 8d96 ef36 6001 bdf5 13d5
	0x0090:  8fe4 2ae4 2650 61ac 118a bbd4 7a67 8470
	0x00a0:  a202 d6a2 1a8d c2c6 a907 a7c0 65b7 570e
	0x00b0:  daee b860 46ed b647 e963 8112 1e1c b107
	0x00c0:  bda4 e549 c070 3df5 b41a 44bb 86df bfc4
	0x00d0:  a284 d84d dedf dcd6 21b5 60e1 7ce9 742f
	0x00e0:  3e82 f75c 8514 643c 20a6 2e59 829b 80bb
	0x00f0:  321f 3aac 2d68 ba2b 9e34 9f0d 2528 68d2
	0x0100:  1a4e 0346 6b88 6170 7866 377d 3fc8 22db
	0x0110:  804c ee12 9512 bb42 0ee0 7f88 b050 6f5a
	0x0120:  27d7 1df6 2f1a c942 8d9e 8a31 7c32 5618
	0x0130:  cb79 22a2 bd84 de4b 2a82 1d72 a630 e2aa
	0x0140:  167d 7166 489b a291 e0ac 285e e024 5b4d
	0x0150:  961c 7c69 595c ea6c d8a4 c666 91b1 3804
	0x0160:  6bb9 bea6 32a3 f6f5 2da7 8051 0c5f c9ac
	0x0170:  0d02 cf1e b1da 04f3 2309 205c f882 3768
	0x0180:  ce0a dc4e c922 0bc4 7ac9 8bd5 6942 b944
	0x0190:  4d2d 8d92 464d 8fa7 c5f9 d884 d26d dd38
	0x01a0:  205e f393 e53a 5b9f ba7c b056 8d4d f262
	0x01b0:  770c 11ca 4578 6567 c4f4 09c3 3fbb 818a
	0x01c0:  c551 dc32 901e e312 240e f244 7a4d 2226
	0x01d0:  c0af ff20 44f0 1eb0 8e71 6179 6768 a05f
	0x01e0:  ca51 687b 997e bbdf dfad e7b4 9c27 58b9
	0x01f0:  a2a3 a8a2 e67f 6f22 3535 1eb2 2565 77d9
	0x0200:  7df6 ada9 1b8b 052f 6fec 4dc4 773c c23f
	0x0210:  0d5c 178e 3ef6 f294 637c fdd9 3e57 052f
	0x0220:  428a 33da 2172 653f 03a8 05f9 9801 891b
	0x0230:  8895 dd3f dde7 e526 beb4 1594 8549 2889
	0x0240:  f9f3 9a59 1922 6edb 23cb 1969 c873 a5b4
	0x0250:  2cf0 72c5 684e a0dc c803 ea72 81c5 00a7
	0x0260:  7ef8 1b79 5ea6 2f85 3760 f809 b061 6a7d
	0x0270:  490f 610e 868d 9d08 70de 969f 829b 912e
	0x0280:  6645 d96d 9ba8 4851 be15 9d58 4577 051b
	0x0290:  54b5 b562 4be9 1ecf e9d1 431f f521 bf1e
	0x02a0:  7b75 1077 45b6 944c 9b73 763d b92b d33a
	0x02b0:  4a9f 0b2f d85b 2c67 01b3 9e
03:54:53.736242 IP 192.168.0.101.39378 > 140.227.186.35.bc.googleusercontent.com.https: Flags [P.], seq 3554:4553, ack 4121, win 501, options [nop,nop,TS val 1846755486 ecr 1218423679], length 999
	0x0000:  0840 f3b2 16f8 9c5a 4472 ec13 0800 4500
	0x0010:  041b 2389 4000 4006 4b00 c0a8 0065 23ba
	0x0020:  e38c 99d2 01bb 40a3 ed15 8189 3b04 8018
	0x0030:  01f5 cc61 0000 0101 080a 6e13 409e 489f
	0x0040:  ab7f 1703 0303 e25f 6d89 ef11 fef2 2569
	0x0050:  41bf 5b43 9fb1 b06c aa80 8280 4d86 a3b9
	0x0060:  9296 3858 8c4b 37d5 7870 37e3 79cc 0ec7
	0x0070:  f807 92fc 2140 b574 9457 9acb f6a0 58b9
	0x0080:  a31d a437 d349 7ff3 211f 7cfb a12e 8b2b
	0x0090:  982d f633 14b1 5f15 f3aa d880 8a1f bb55
	0x00a0:  9853 f01f 079a 91d9 82ca be12 2e58 a2d0
	0x00b0:  8351 5c59 2b8e 5a1c 2c06 7fb6 c62c d673
	0x00c0:  3fa0 6a5d a404 d742 619a 3ddb 6b7d 6fcc
	0x00d0:  7315 501d d09b c017 99cd 375d 04fb 260e
	0x00e0:  6b1b 5c6f b546 edb7 aae9 4bb5 e790 55a0
	0x00f0:  3481 441e fabb a58b 2a9d 55d6 2343 a2a5
	0x0100:  e06e ab9f 702b e061 eb33 3959 f3d5 c36b
	0x0110:  bd33 430c dea9 0732 9382 a005 ce8d 088b
	0x0120:  b071 ea5b 3a72 a9a6 57e9 1d82 75f4 0458
	0x0130:  5a1e ad64 d466 7a73 dab3 eff4 4407 48a6
	0x0140:  3f28 ce4d df18 d172 fd34 0b85 aee6 94b9
	0x0150:  78f9 0227 46f2 59a7 0626 f42a 3d05 8e66
	0x0160:  fab6 049a fc90 9bf0 64bf 0da2 a776 329e
	0x0170:  8d9e b64e a4db afc5 e341 004d bc14 ac27
	0x0180:  9795 d8f8 cf32 04d1 eea1 f73c c216 7a38
	0x0190:  3216 93f9 b36d 15e0 3a10 8c2e b2fc 97fe
	0x01a0:  f4bd dddc 3006 0b8b fb8d 0ef3 1019 249c
	0x01b0:  8722 5a19 bd4d d12f 49c2 f9c9 798b 6d08
	0x01c0:  965a 8e58 6112 c279 29d2 a2a4 85a3 d8dc
	0x01d0:  b942 4b21 b2f8 e69a 9108 aeef 0c95 d0e6
	0x01e0:  98d3 cf21 9897 b057 4bc3 08bf f642 d052
	0x01f0:  8477 a663 ba41 1f81 3cda 3852 20dc 5139
	0x0200:  7b1d 15ba fb8b f6a9 d734 a64c f7a9 e3f4
	0x0210:  536c d9f5 ae2c c72f a830 a660 6f78 3031
	0x0220:  9828 f909 4b55 366b 4825 b25a 3697 76e2
	0x0230:  5c20 7b42 2943 472a 21b2 f890 5f4f 875f
	0x0240:  1295 b3bf 9df5 b08d 4a25 1750 c220 53da
	0x0250:  4ee6 3f9b 45b0 2e38 a295 65e9 2185 4d78
	0x0260:  c76b 5713 853d f118 11c2 d616 6b02 0f88
	0x0270:  baab c753 9955 ed82 5640 775f ea42 f304
	0x0280:  27d7 d18f d4d5 f671 d94f 1332 7cd3 1882
	0x0290:  dce9 18c0 038c 562c 42a7 7fb0 5f0d acf1
	0x02a0:  a86a e4e6 17e8 94a0 dfc4 23d5 a43f 03fe
	0x02b0:  9773 a985 9805 9100 c757 769c c3b1 c57a
	0x02c0:  7dba 7d4e 4656 9d4a 3095 0795 85b4 246e
	0x02d0:  9020 6ac5 9c6b ea26 33e8 b9e7 35e3 29b7
	0x02e0:  3c89 1809 da43 c59e cb4d 03e9 cb0d a44f
	0x02f0:  d0b2 ec2e 1c67 45bf fd47 b3b7 2ffd 288a
	0x0300:  8f24 1d9a 4325 0679 e50c 0b14 9158 e7b4
	0x0310:  f696 c969 68ce 551f 754c b864 236d 4e23
	0x0320:  b10e 1d19 5a55 fad5 50b5 dc4b a9f3 7777
	0x0330:  c756 6e91 40fb 06b9 6944 6828 8b9d afee
	0x0340:  71b9 027a 33b9 d97a 40a8 d798 5c63 e3de
	0x0350:  8744 a97e 7ebf 18be 888c 38c7 c2dc c565
	0x0360:  6cf2 8c9e 86cd 70bb ba0b ecfd 1ad5 00dc
	0x0370:  0d26 3885 e27f 181e 740b 91ea 314f aad6
	0x0380:  020e 229b 785c 6308 abd5 f143 94fe 37de
	0x0390:  0ff0 ebf0 cc8a b103 4f26 b832 8c6d 019e
	0x03a0:  a126 b30d 6d5d 2c08 0ebe 91e7 3b42 4bc2
	0x03b0:  1482 c357 609e f430 edd6 fd48 7e33 a250
	0x03c0:  24c2 5c9d b976 8eed 5a6b effb 37b0 65ab
	0x03d0:  bdb4 047a 107c 28d1 0681 18ad eebc 7474
	0x03e0:  0b19 b893 08d8 7c39 af80 e37e 678d 8671
	0x03f0:  f4eb fd9b 78bb 70ec fed3 c399 c0a7 4308
	0x0400:  de1e 6978 8e84 8975 a542 86b7 1406 1da5
	0x0410:  bcd3 3cca 83f2 2eb9 b2ff 8a9d 42db 4396
	0x0420:  5696 48f1 c34c 09dd af
03:54:53.736291 IP 192.168.0.101.39378 > 140.227.186.35.bc.googleusercontent.com.https: Flags [P.], seq 4553:4870, ack 4121, win 501, options [nop,nop,TS val 1846755486 ecr 1218423679], length 317
	0x0000:  0840 f3b2 16f8 9c5a 4472 ec13 0800 4500
	0x0010:  0171 238a 4000 4006 4da9 c0a8 0065 23ba
	0x0020:  e38c 99d2 01bb 40a3 f0fc 8189 3b04 8018
	0x0030:  01f5 c9b7 0000 0101 080a 6e13 409e 489f
	0x0040:  ab7f 1703 0301 38ea 7467 a412 1e72 de96
	0x0050:  c6ef 9a8a d729 0998 1ae1 f6a2 8f7c 7052
	0x0060:  09fe c818 0029 8111 222b 076b e9a1 8671
	0x0070:  5f76 7cb0 c326 5f42 c188 d342 2cb1 51e6
	0x0080:  dd6d ce86 1125 4f5f ceab 25c7 f92d deb8
	0x0090:  8caf 692c defc fa3f 0da0 4847 2125 4036
	0x00a0:  f80b 5b1e 14c0 0734 3ff7 8dad 08e3 c40a
	0x00b0:  9214 4e04 de72 4dfb 2343 ec34 9595 5fdd
	0x00c0:  9754 f409 edf6 f015 0b40 c263 7611 c37b
	0x00d0:  4e8c 5443 91d8 cc07 80f7 a369 fbf6 586e
	0x00e0:  3a3a 08a7 6872 5370 538b 2dc5 1af8 2f00
	0x00f0:  1eab 23a8 8041 5d8b dc13 f53c 4cfc d565
	0x0100:  90eb 00f4 13eb b841 71a3 8e51 c235 8936
	0x0110:  2adf 6b88 6ed5 dd20 cf09 02c8 c209 0a89
	0x0120:  e472 bd6f eb77 eb6b fb5d 9633 f701 9f91
	0x0130:  5258 6cf4 141b 14ac 1134 d1fa 26c6 823d
	0x0140:  669d 330c 4b10 ea62 b9ec dd70 dc2b 8b47
	0x0150:  c5c1 2f8b a2ee 50f1 f0b2 d7ff 51dd a021
	0x0160:  6cc3 7342 bf93 15c2 b18f 19af d355 7f9c
	0x0170:  4b07 27be 8de1 78c9 24dd 08e8 3e3b a0
03:54:53.751036 IP 140.227.186.35.bc.googleusercontent.com.https > 192.168.0.101.39378: Flags [.], ack 2921, win 290, options [nop,nop,TS val 1218423729 ecr 1846755437,nop,nop,sack 1 {4553:4870}], length 0
	0x0000:  9c5a 4472 ec13 0840 f3b2 16f8 0800 4500
	0x0010:  0040 22d0 0000 7706 5894 23ba e38c c0a8
	0x0020:  0065 01bb 99d2 8189 3b04 40a3 ea9c b010
	0x0030:  0122 ec85 0000 0101 080a 489f abb1 6e13
	0x0040:  406d 0101 050a 40a3 f0fc 40a3 f239
03:54:53.751036 IP 140.227.186.35.bc.googleusercontent.com.https > 192.168.0.101.39378: Flags [.], ack 3554, win 295, options [nop,nop,TS val 1218423729 ecr 1846755486,nop,nop,sack 1 {4553:4870}], length 0
	0x0000:  9c5a 4472 ec13 0840 f3b2 16f8 0800 4500
	0x0010:  0040 22d1 0000 7706 5893 23ba e38c c0a8
	0x0020:  0065 01bb 99d2 8189 3b04 40a3 ed15 b010
	0x0030:  0127 e9d6 0000 0101 080a 489f abb1 6e13
	0x0040:  409e 0101 050a 40a3 f0fc 40a3 f239
03:54:53.752953 IP 140.227.186.35.bc.googleusercontent.com.https > 192.168.0.101.39378: Flags [.], ack 4870, win 306, options [nop,nop,TS val 1218423731 ecr 1846755486], length 0
	0x0000:  9c5a 4472 ec13 0840 f3b2 16f8 0800 4500
	0x0010:  0034 22d2 0000 7706 589e 23ba e38c c0a8
	0x0020:  0065 01bb 99d2 8189 3b04 40a3 f239 8010
	0x0030:  0132 7f3a 0000 0101 080a 489f abb3 6e13
	0x0040:  409e
03:54:53.853427 IP 192.168.0.1.domain > 192.168.0.101.46502: 22655 1/0/0 PTR 140.227.186.35.bc.googleusercontent.com. (98)
	0x0000:  9c5a 4472 ec13 0840 f3b2 16f8 0800 4500
	0x0010:  007e 2841 0000 4011 d077 c0a8 0001 c0a8
	0x0020:  0065 0035 b5a6 006a a312 587f 8180 0001
	0x0030:  0001 0000 0000 0331 3430 0332 3237 0331
	0x0040:  3836 0233 3507 696e 2d61 6464 7204 6172
	0x0050:  7061 0000 0c00 01c0 0c00 0c00 0100 0000
	0x0060:  7800 2903 3134 3003 3232 3703 3138 3602
	0x0070:  3335 0262 6311 676f 6f67 6c65 7573 6572
	0x0080:  636f 6e74 656e 7403 636f 6d00
03:54:53.853827 IP 192.168.0.101.35910 > 192.168.0.1.domain: 9987+ PTR? 159.55.238.44.in-addr.arpa. (44)
	0x0000:  0840 f3b2 16f8 9c5a 4472 ec13 0800 4500
	0x0010:  0048 6789 4000 4011 5165 c0a8 0065 c0a8
	0x0020:  0001 8c46 0035 0034 81fc 2703 0100 0001
	0x0030:  0000 0000 0000 0331 3539 0235 3503 3233
	0x0040:  3802 3434 0769 6e2d 6164 6472 0461 7270
	0x0050:  6100 000c 0001
03:54:53.883676 IP 192.168.0.1.domain > 192.168.0.101.35910: 9987 1/0/0 PTR ec2-44-238-55-159.us-west-2.compute.amazonaws.com. (107)
	0x0000:  9c5a 4472 ec13 0840 f3b2 16f8 0800 4500
	0x0010:  0087 2843 0000 4011 d06c c0a8 0001 c0a8
	0x0020:  0065 0035 8c46 0073 5355 2703 8180 0001
	0x0030:  0001 0000 0000 0331 3539 0235 3503 3233
	0x0040:  3802 3434 0769 6e2d 6164 6472 0461 7270
	0x0050:  6100 000c 0001 c00c 000c 0001 0000 012c
	0x0060:  0033 1165 6332 2d34 342d 3233 382d 3535
	0x0070:  2d31 3539 0975 732d 7765 7374 2d32 0763
	0x0080:  6f6d 7075 7465 0961 6d61 7a6f 6e61 7773
	0x0090:  0363 6f6d 00
03:54:53.968710 IP 140.227.186.35.bc.googleusercontent.com.https > 192.168.0.101.39378: Flags [P.], seq 4121:4230, ack 4870, win 306, options [nop,nop,TS val 1218423947 ecr 1846755486], length 109
	0x0000:  9c5a 4472 ec13 0840 f3b2 16f8 0800 4500
	0x0010:  00a1 237d 0000 7706 5786 23ba e38c c0a8
	0x0020:  0065 01bb 99d2 8189 3b04 40a3 f239 8018
	0x0030:  0132 6bd7 0000 0101 080a 489f ac8b 6e13
	0x0040:  409e 1703 0300 6840 32ae 082f 679e aaba
	0x0050:  4d07 6ec2 a37c a370 47ab 499f cd1b fb1a
	0x0060:  91e0 594c f3f7 070a 04e6 cdba 10c3 0946
	0x0070:  e284 b425 707a 7463 3c25 d54b 0bd2 6fb8
	0x0080:  ed9d 401d e456 ec36 af97 31de 9ff3 80ca
	0x0090:  53f7 16a1 24bf 38f4 1e66 ba49 ce4c 3c62
	0x00a0:  7550 c0d3 e567 e468 319d 47c6 8b86 5a
03:54:53.968711 IP 140.227.186.35.bc.googleusercontent.com.https > 192.168.0.101.39378: Flags [P.], seq 4230:4357, ack 4870, win 306, options [nop,nop,TS val 1218423947 ecr 1846755486], length 127
	0x0000:  9c5a 4472 ec13 0840 f3b2 16f8 0800 4500
	0x0010:  00b3 237e 0000 7706 5773 23ba e38c c0a8
	0x0020:  0065 01bb 99d2 8189 3b71 40a3 f239 8018
	0x0030:  0132 928a 0000 0101 080a 489f ac8b 6e13
	0x0040:  409e 1703 0300 5ba8 f20b 771f 436c faaf
	0x0050:  386c d5c9 7a11 72c7 4031 be3f 0dbc 5407
	0x0060:  c938 0de2 1c4d 0cae 14a5 2b1d 97b8 d070
	0x0070:  f487 627a fe65 173f 921e 41e4 9f02 1bde
	0x0080:  e5b5 3724 8d2f f6b4 1503 2e4d 4457 2015
	0x0090:  12b9 e4c1 9dcf dec1 c5d3 397f c911 003d
	0x00a0:  54c0 1703 0300 1aa8 9751 ec2c 7e27 99a2
	0x00b0:  fb4d 95e2 7669 bc41 6d85 28c2 1aa9 7276
	0x00c0:  3e
03:54:53.968711 IP 140.227.186.35.bc.googleusercontent.com.https > 192.168.0.101.39378: Flags [P.], seq 4357:4396, ack 4870, win 306, options [nop,nop,TS val 1218423947 ecr 1846755486], length 39
	0x0000:  9c5a 4472 ec13 0840 f3b2 16f8 0800 4500
	0x0010:  005b 237f 0000 7706 57ca 23ba e38c c0a8
	0x0020:  0065 01bb 99d2 8189 3bf0 40a3 f239 8018
	0x0030:  0132 52b9 0000 0101 080a 489f ac8b 6e13
	0x0040:  409e 1703 0300 2201 d838 8617 5230 07df
	0x0050:  1a9d 4fd2 5716 2747 abd7 d2e8 c0f2 0347
	0x0060:  6496 2d51 c14d 8b2d 2c
03:54:53.969274 IP 192.168.0.101.39378 > 140.227.186.35.bc.googleusercontent.com.https: Flags [.], ack 4396, win 501, options [nop,nop,TS val 1846755719 ecr 1218423947], length 0
	0x0000:  0840 f3b2 16f8 9c5a 4472 ec13 0800 4500
	0x0010:  0034 238b 4000 4006 4ee5 c0a8 0065 23ba
	0x0020:  e38c 99d2 01bb 40a3 f239 8189 3c17 8010
	0x0030:  01f5 c87a 0000 0101 080a 6e13 4187 489f
	0x0040:  ac8b
03:54:53.969320 IP 192.168.0.101.39378 > 140.227.186.35.bc.googleusercontent.com.https: Flags [P.], seq 4870:4909, ack 4396, win 501, options [nop,nop,TS val 1846755719 ecr 1218423947], length 39
	0x0000:  0840 f3b2 16f8 9c5a 4472 ec13 0800 4500
	0x0010:  005b 238c 4000 4006 4ebd c0a8 0065 23ba
	0x0020:  e38c 99d2 01bb 40a3 f239 8189 3c17 8018
	0x0030:  01f5 c8a1 0000 0101 080a 6e13 4187 489f
	0x0040:  ac8b 1703 0300 22eb 7567 d7ac 87d3 c89d
	0x0050:  c042 09e2 3ee0 486f 70a9 456c 26ca c722
	0x0060:  3ff5 8204 f1a3 6057 93
03:54:53.970674 IP ec2-44-238-55-159.us-west-2.compute.amazonaws.com.https > 192.168.0.101.57244: Flags [P.], seq 3714:4295, ack 1921, win 120, options [nop,nop,TS val 650632327 ecr 3650830775], length 581
	0x0000:  9c5a 4472 ec13 0840 f3b2 16f8 0800 4500
	0x0010:  0279 7389 4000 dc06 035b 2cee 379f c0a8
	0x0020:  0065 01bb df9c 020c 415f ca00 0b3a 8018
	0x0030:  0078 e1a3 0000 0101 080a 26c7 dc87 d99b
	0x0040:  41b7 1703 0302 4026 5ee6 dc03 af68 5226
	0x0050:  497b b116 0342 9221 ce26 007a 3de1 048e
	0x0060:  7a9f 69a8 e67b bdf8 43e9 cf63 9784 e6f6
	0x0070:  21bd 5a8b 21d6 fb11 f5a2 93f5 f474 c65f
	0x0080:  9a83 3d8d 0449 3478 ae47 8349 3b6c 01ab
	0x0090:  9f3c 2192 84cc 0953 d285 b9b0 d10f b1ab
	0x00a0:  8e36 582e f3a2 5c41 50ed db1b ce9b 33cc
	0x00b0:  7249 eb08 528c cdfb d5a7 f52d a563 c37c
	0x00c0:  ce33 82d1 fa5d 246c a053 0807 38ef 195f
	0x00d0:  6f3a b6fb 73a7 5638 9512 7ff7 4f0b 29bb
	0x00e0:  7377 676e a96d aa3d 8f97 0d85 987c 68f0
	0x00f0:  428f 45bf 383b 3652 8008 4953 c1f6 9a8e
	0x0100:  2edd 10b8 7f3b b9f1 ecae 66bc 0abe 40a7
	0x0110:  0c99 f044 1792 29c3 e162 abc3 d5ad 11d0
	0x0120:  a877 f2a2 aca9 0068 b389 ca67 f78f 878a
	0x0130:  271c ff3a e575 ffee 50f7 b718 d365 2f62
	0x0140:  593f 9344 d8c4 98b1 8e67 363b 2815 0470
	0x0150:  e74f 9a6d 7763 333e a9f4 b575 94e5 0c36
	0x0160:  29ca 9ddf a242 0005 8b30 1117 6589 a4b6
	0x0170:  246b 7edf 1a67 eeeb 7083 2ed6 cb09 8386
	0x0180:  be21 1bc7 beb4 25f5 3943 49fd 5b0c 3d25
	0x0190:  b0e1 0226 d545 897f b6dc 90cc d657 6ed4
	0x01a0:  5601 a72e 6962 49ff 5a81 bdaa 2f64 3586
	0x01b0:  5f9e 0bd5 c820 68ae 5574 4d11 80cc 0f18
	0x01c0:  bdf8 0204 87df ca88 2010 ca87 c1f9 7530
	0x01d0:  e706 1e34 4f25 1518 ec66 1342 eebb 4264
	0x01e0:  7f16 3b79 91ae bd2f 839e 0381 51aa 8bf3
	0x01f0:  abe9 7e7a 5689 3ea5 323e 896b 5ddb 19a8
	0x0200:  b80e 651f 5a82 d9df eb10 a92b 0a72 737a
	0x0210:  0008 08ed d859 de14 7e10 45b5 373d d343
	0x0220:  3bed b0e4 0253 0ec0 00f3 792d f8ee 9ffe
	0x0230:  f98f 954e 548f 190a 3d5d 6f64 d86d bbe9
	0x0240:  c640 382d f633 9217 c00d cfa5 4b93 7e48
	0x0250:  5723 5c56 d111 d243 f28c ea34 819d 38cf
	0x0260:  31b4 3edc 6355 dde6 b5e2 3227 0da5 0d15
	0x0270:  034c a17e 56fb 87e5 48b5 1db8 cdc6 675f
	0x0280:  61fa d198 d24d 85
03:54:53.970717 IP 192.168.0.101.57244 > ec2-44-238-55-159.us-west-2.compute.amazonaws.com.https: Flags [.], ack 4295, win 501, options [nop,nop,TS val 3650831063 ecr 650632327], length 0
	0x0000:  0840 f3b2 16f8 9c5a 4472 ec13 0800 4500
	0x0010:  0034 2a8e 4000 4006 ea9b c0a8 0065 2cee
	0x0020:  379f df9c 01bb ca00 0b3a 020c 43a4 8010
	0x0030:  01f5 25c1 0000 0101 080a d99b 42d7 26c7
	0x0040:  dc87
03:54:53.984820 IP 140.227.186.35.bc.googleusercontent.com.https > 192.168.0.101.39378: Flags [.], ack 4909, win 306, options [nop,nop,TS val 1218423963 ecr 1846755719], length 0
	0x0000:  9c5a 4472 ec13 0840 f3b2 16f8 0800 4500
	0x0010:  0034 2380 0000 7706 57f0 23ba e38c c0a8
